:1000000012C02CC02BC02AC029C028C0D2C226C012
:1000100025C024C0CDC123C021C051C01FC01EC0F7
:100020001DC01CC01BC011241FBECFE5D4E0DEBF25
:10003000CDBF10E0A0E6B0E0EEECF8E102C0059024
:100040000D92A636B107D9F710E0A6E6B0E001C0E0
:100050001D92AD3CB107E1F76FD837CCD1CF1F92DD
:100060000F920FB60F9211248F939F93EF93FF93EC
:100070008CB1882321F090EE980F9E35B8F49091C2
:100080006600911113C0E0916700F0E0E557FF4F63
:100090008083909167009F5F90936700811106C0F5
:1000A000809167008093660010926700FF91EF9146
:1000B0009F918F910F900FBE0F901F9018951F92D8
:1000C0000F920FB60F9211248F939F93EF93FF938C
:1000D0009091690080916800981760F4E091690040
:1000E00081E08E0F80936900F0E0E958FF4F808136
:1000F0008CB913C09091690080916800981307C073
:10010000809169008F5F809369001CB806C01092CF
:1001100069001092680010927700FF91EF919F9113
:100120008F910F900FBE0F901F90189510BC8FE508
:1001300089B98AB1886D8AB986E880BD78940895B6
:10014000E7E7F0E001900020E9F73197E757F0404A
:10015000E093680080916800882371F080916900C5
:1001600081110AC0E0916900F0E0E958FF4F8081F9
:100170008CB981E08093690008950F931F93A82F95
:10018000B0E000916A0010916B0020916C003091FA
:100190006D00AA0FBB1F613029F5AD014F5F5F4FA6
:1001A000E1E0F0E0CF0102C0880F991F4A95E2F725
:1001B000AC0140955095662757FD6095762FCF018D
:1001C00002C0880F991FAA95E2F7AA2797FDA0956C
:1001D000BA2F802B912BA22BB32B482359236A23B0
:1001E0007B2322C0E1E0F0E0AF010A2E02C0440F01
:1001F000551F0A94E2F740955095662757FD609584
:10020000762F40235123622373231196CF0102C01E
:10021000880F991FAA95E2F7AA2797FDA095BA2FF4
:10022000482B592B6A2B7B2B40936A0050936B0011
:1002300060936C0070936D0060916A0070916B0028
:1002400080916C0090916D001F910F914EC00F93A3
:100250001F93482F50E0440F551FE1E0F0E0BF012D
:10026000042E02C0660F771F0A94E2F7609570951E
:10027000882777FD8095982F00916A0010916B0078
:1002800020916C0030916D006023712382239323B1
:100290004F5F5F4F8F0102C0000F111F4A95E2F7B9
:1002A00000951095222717FD2095322F602371238A
:1002B0008223932360936A0070936B0080936C0099
:1002C00090936D001F910F9110C010926A001092D0
:1002D0006B0010926C0010926D0060E070E0CB013A
:1002E00004C084B3876084BB0895CF92DF92EF92FD
:1002F000FF922FE130E0E1E0F0E0AF01022E02C01A
:10030000440F551F0A94E2F76A01EE24D7FCE094EB
:10031000FE2CC622D722E822F922CD28CE28CF28CB
:1003200011F0AA9A01C0AA98A89AA8982150310958
:1003300020F7A99AA89AA898A998FF90EF90DF9023
:10034000CF9008958CE287BBC29A81E58DB9109257
:10035000A00010929F001092A1001092A200109293
:10036000A3001092A4001092A5001092A600109273
:10037000A8001092A7001092A9001092AA00109253
:10038000AB001092AC001092AD001092AE007894C9
:1003900008956F9AC29886E08FB98AE080936E00C4
:1003A00080919F0080936F0081E08093700008959A
:1003B0001F920F920FB60F921124AF92BF92CF925D
:1003C000DF92EF92FF921F932F933F934F935F9390
:1003D0006F937F938F939F93AF93BF93CF93DF934D
:1003E000EF93FF938091700023E0622FC3D7182F03
:1003F00080917000BFD7911158C0C29A809172004D
:10040000909173002FB1822B9093730080937200B0
:10041000112319F0CFEFC10F01C0C1E0D0E060910E
:1004200072007091730034E0769567953A95E1F724
:100430008FE0189F50011124F501E155FF4F5F0136
:100440008585681B710980E090E09DD86B017C0177
:10045000F501648570E080E090E097D820E030E01E
:100460004FE753E4FCD79B01AC01C701B6013DD96E
:100470005ED843E0CC0FDD1F4A95E1F7C156DF4F50
:100480006C83809172009091730054E096958795EB
:100490005A95E1F78F8381E08B83C29812FF02C0E7
:1004A00087E001C086E08FB91FC080917000622F85
:1004B00061D7913031F41295110F110F107C1FB9D3
:1004C00013C08FB190E0982F88279093730080938A
:1004D0007200809172009091730088279F709093B2
:1004E0007300809372001FB8809170008F5F8093BB
:1004F000700080917000863011F410927000FF91AE
:10050000EF91DF91CF91BF91AF919F918F917F91AB
:100510006F915F914F913F912F911F91FF90EF90BD
:10052000DF90CF90BF90AF900F900FBE0F901F90B5
:100530001895809171000895109271008091720059
:10054000909173000895C2986F9882FD02C096E062
:1005500001C097E09FB9779BFECF8295880F880FE7
:10056000807C8FB9779BFECF8FB190E0982F882742
:100570009093730080937200809172009091730049
:1005800088279F7090937300809372001FB8779BA9
:10059000FECF80917200909173002FB1822B9093C7
:1005A000730080937200C29A8091720090917300E0
:1005B00008951F920F920FB60F9211248F938EB54C
:1005C0008C7F8EBD81E0809375008F910F900FBE60
:1005D0000F901F9018952F923F924F925F926F92BB
:1005E0007F928F929F92AF92BF92CF92DF92EF92C3
:1005F000FF920F931F93CF93DF9300D000D000D0D2
:10060000CDB7DEB7282E8EB58C7F8EBDF894809145
:100610007500882319F08AB59BB502C08CB59DB5CD
:1006200078945FEAC52E50E0D52E0AEB10E020EB5F
:1006300030E03E832D8369EBE62E60E0F62E812CC0
:10064000912C2C01612C712C49825A826B827C8204
:1006500074E0372E882DAD81BE8115964D915D9148
:100660006D917C911897411551056105710509F44B
:1006700070C1F7019081292F2D7F253019F092301C
:1006800009F067C1821509F464C149805A806B8002
:100690007C804419550966097709AD81BE8115969C
:1006A0004D935D936D937C931897452B462B472B69
:1006B00009F04FC110927700F70190819530D9F180
:1006C000973021F0923009F044C1E7C0F40143E0D3
:1006D000EE0FFF1F4A95E1F7E156FF4F8481AD8190
:1006E000BE818C9344244394D7014C929081D601CF
:1006F0008C91981788F4F80180818160808320E0D4
:1007000030E040E251E4AD81BE8111966D917D9162
:100710008D919C911497F3C0D8018C918E7F8C930E
:1007200020E030E040E251E4ED81FE8161817281A0
:100730008381948104C18BDD809176008150809308
:100740007600F801808181FFA4C0540133E0AA0C37
:10075000BB1C3A95E1F7F501E156FF4F94819923CF
:1007600019F094819F3FA1F5F501E156FF4F948167
:10077000992321F08E7FD8018C9303C08160F8010A
:100780008083F501E156FF4F8481AD81BE818C935A
:10079000F8018081826080839AEF492E55245A9413
:1007A000612C712C15964D925D926D927C921897EA
:1007B000412C20E4522E2CE1622E26E4722E11965A
:1007C0004D925D926D927C921497F7013082C1C078
:1007D000848190E0AD81BE812C91821B9109BC0186
:1007E000882777FD8095982FD0D69B01AC0160E0DB
:1007F0007AEF8FE797E433D62B013C0120E030E01D
:10080000A90129D687FD07C0ED81FE814182528270
:10081000638274820CC077FA709477F87094AD811B
:10082000BE8111964D925D926D927C921497F50166
:10083000E156FF4F8481AD81BE818C9344244A945C
:10084000D6014C92D8018C9181608C938481EFEF1A
:10085000F0E0E81BF109BF01882777FD8095982F0C
:1008600094D6AD81BE8111962D913D914D915C91B3
:1008700014973BD75CD6ED81FE81658376838783B1
:100880009087D7013C92F80180818D7F84608083BE
:1008900060C0E6E0D701EC935CC0D9DC80917600C3
:1008A000815080937600F40183E0EE0FFF1F8A955C
:1008B000E1F7E156FF4F8481AD81BE818C93D70172
:1008C0003C929081F6018081D801981708F58C91AF
:1008D00081608C93808190E0ED81FE812081821B7C
:1008E0009109BC01882777FD8095982F4ED6AD8160
:1008F000BE8111962D913D914D915C911497F5D645
:1009000016D6ED81FE81658376838783908721C02B
:100910008C918E7F8C93ED81FE81808190E0D60159
:100920002C91821B9109BC01882777FD8095982F17
:100930002CD6ED81FE812181328143815481D5D62F
:10094000F6D5AD81BE8115966D937D938D939C9365
:100950001897BFEF8B1A9B0AEFE0CE0ED11C015FF8
:100960001F4F2D813E81215F3F4F3E832D833FE00E
:10097000E30EF11C42E08416910409F06BCE8091E5
:10098000B5009091B600A091B700B091B8008F3F2C
:100990005FEF9507A105B10530F40097A105B105FA
:1009A00031F09C0102C02FEF3FEFE1E003C02FEFD9
:1009B0003FEFE0E08091C4009091C500A091C60097
:1009C000B091C700A90160E070E084179507A60701
:1009D000B70728F40097A105B10549F09C013BBD7C
:1009E0002ABD1DBC1CBC8EB583608EBD02C0E1114A
:1009F000F6CF26960FB6F894DEBF0FBECDBFDF91BF
:100A0000CF911F910F91FF90EF90DF90CF90BF900B
:100A1000AF909F908F907F906F905F904F903F909E
:100A20002F9008952F923F924F925F926F927F92F4
:100A30008F929F92AF92BF92CF92DF92EF92FF92EE
:100A40000F931F93CF93DF9329EBC22E20E0D22E7A
:100A50003FEA832E30E0932EC0EBD0E04DEBE42E46
:100A600040E0F42E0AEB10E0A12CB12C54E0552EFE
:100A700067E0462E22242A94312C7A2CD6012C9120
:100A80002330B9F130F4213061F0223009F45DC136
:100A900080C1253009F459C120F0263009F48CC0FA
:100AA00078C180917600843008F073C18D819E8179
:100AB000AF81B885892B8A2B8B2B09F46AC12F5FF4
:100AC000F6012083F50193E0EE0FFF1F9A95E1F701
:100AD000E156FF4F84818883872D7DDDD8016C919D
:100AE0006170872D4ADB809176008F5F809376005E
:100AF00050C1F801808180FF12C0F50183E0EE0F44
:100B0000FF1F8A95E1F7E156FF4F8481288130E08D
:100B1000285F3F4F90E028173907ACF430C08111AF
:100B20002EC0888190E0F501B3E0EE0FFF1FBA956B
:100B3000E1F7E156FF4F2481AC014850510930E004
:100B400024173507B4F0F501A3E0EE0FFF1FAA95B7
:100B5000E1F7E156FF4F84818883D6014C9220E073
:100B600030E04AEC58E02D833E834F835887872D31
:100B70000FC10A97D4012C91821B91090AC0F4017C
:100B80002081888146EF5FEF481B5109CA01820F1F
:100B9000911DBC01882777FD8095982FF6D4298177
:100BA0003A814B815C81A1D5C2D46D837E838F83D2
:100BB0009887D6015C92EDC0F8012081C501F3E071
:100BC000880F991FFA95E1F7FC01E156FF4F22FFCC
:100BD0005CC024812F3F29F0D7012C91243608F4E2
:100BE00042C0F70110829C0121563F4F3901D901C3
:100BF00017968C9117973297808317966C9170E0B7
:100C000080E090E0C2D420E030E04FE753E427D406
:100C10009B01AC0169817A818B819C8166D5698356
:100C20007A838B839C83F80180818B7F88608083AB
:100C3000D30114968C918883F6015082D8018C914F
:100C40008E7F8C93688170E080E090E09ED4298153
:100C50003A814B815C8149D56AD46D837E838F83D1
:100C60009887F40142C084818883D6015C92F701A1
:100C700080818F5F8083D8018C9181608C93888183
:100C8000F101E81BF109CF014CC023FF28C02481EA
:100C9000222321F0D7012C91243680F0F601108216
:100CA000D7011C92FC01E156FF4F8781F701319774
:100CB0008083F8018081877F80836BC084818883F3
:100CC000D6015C92F70180818F5F8083D8018C917F
:100CD0008E7F8C93688170E080E090E027C09481E3
:100CE000D4018C91981303C0F601108252C0848104
:100CF0008883D6015C922481F4019081D8018C9183
:100D0000291730F481608C93808190E0288107C09E
:100D10008E7FF8018083888190E0D4012C91821B22
:100D20009109BC01882777FD8095982F2ED42981C1
:100D30003A814B815C81D9D49B01AC0128D3F7D394
:100D40006D837E838F83988724C02881C501E3E06B
:100D5000880F991FEA95E1F7222341F0FC01E15643
:100D6000FF4F3481332341F02F3F99F0FC01E156CE
:100D7000FF4F84818F3F69F48EB58C7F8EBD8CB51B
:100D80009DB5A0E0B0E08D839E83AF83B88782E0FD
:100D900022DCBFEFAB1ABB0AEFE0CE0ED11CFFE0A6
:100DA0008F0E911C2F962FE0E20EF11C015F1F4F5A
:100DB00032E0A316B10409F060CEDF91CF911F910C
:100DC0000F91FF90EF90DF90CF90BF90AF909F90EA
:100DD0008F907F906F905F904F903F902F900895ED
:100DE000CF93DF93A62F90E09C01E3E0220F331F07
:100DF000EA95E1F7F901E156FF4F4481641709F4E0
:100E00006DC0B4814FE0489FF001499FF00D11245F
:100E1000E155FF4FB183608340E050E068EC72E43D
:100E200042835383648375834385AB1710F44E7FED
:100E300001C0416043876A2F70E0F901E156FF4F1E
:100E40004481EB01C41BD109CB30D1051CF0448196
:100E50004A1768F0F901E156FF4F448150E0461B04
:100E6000570B4B305105DCF04481A417C0F42FE040
:100E7000289FE001299FD00D1124C155DF4F20E0AC
:100E800030E040E251E46A817B818C819D812DD4E8
:100E90004ED36E837F838887998781E01EC0F901D6
:100EA000E156FF4F24813FE0389FE001399FD00D8C
:100EB0001124C155DF4F621B7109882777FD80958A
:100EC000982F63D32A813B814C815D810ED42FD32F
:100ED0006E837F838887998784E08A87DF91CF91AB
:100EE00008950F931F93CF93DF93EB01109174003C
:100EF00088818E7F88830AE080E025DBF4E0969588
:100F00008795FA95E1F7212F30E02817390711F47A
:100F10000F5F01C000E0182F0A3070F320917400B9
:100F2000281719F028812160288310937400DF911D
:100F3000CF911F910F9108952F923F924F925F9200
:100F40006F927F928F929F92AF92BF92CF92DF92D9
:100F5000EF92FF920F931F93CF93DF9300D0CDB703
:100F6000DEB70AEB10E0AFEA8A2EA0E09A2EBDEBC6
:100F7000AB2EB0E0BB2E312C8AEF482E55245A946C
:100F8000612C712CC12C90E4D92E9CE1E92E96E4C1
:100F9000F92E94E022242A941982BE016F5F7F4FBC
:100FA000832D9A839EDF9A818B3738F08456F40123
:100FB0008083F80180818E7F03C0F8018081816089
:100FC0008083F8018081826080833A971082F401E7
:100FD0004682578260867186C282D382E482F5821D
:100FE000F80131979083F50131971082F50132971E
:100FF0002082F50110823394015F1F4FFFE08F0EB6
:10100000911C8FE0A80EB11CE2E03E12C5CF1092F9
:1010100076001EBC80E098E49BBD8ABD89B78061E4
:1010200089BF78940F900F90DF91CF911F910F910E
:10103000FF90EF90DF90CF90BF90AF909F908F90F8
:101040007F906F905F904F903F902F900895482F22
:10105000282F30E08FE0489FF0011124E155FF4F29
:101060008285882319F083858F738387F90153E084
:10107000EE0FFF1F5A95E1F7DF01A156BF4F1496FF
:101080009C91149711968C9111979817D1F1149601
:101090009C91149715968C911597981307C01696E6
:1010A0008C9116978F5F16968C9302C016961C92A1
:1010B000E156FF4F8481858386818A30A1F5808146
:1010C00081838481808381E082831382168281E020
:1010D00090E002C0880F991F4A95E2F74FE0429FC7
:1010E000F001439FF00D1124E155FF4F228521119E
:1010F0001CC0238526FF02C0206801C0206423870E
:10110000089514968C91811108C081E090E002C08E
:10111000880F991F4A95E2F702C080E090E0E156FF
:10112000FF4F1682089580E090E00895BA9AC29A1F
:10113000B89AC09A08950895CF93DF9300D000D055
:101140001F92CDB7DEB7FED8F1D7F0DFCAD8F4DEF4
:101150002FEF8FEF9CE2215080409040E1F700C0DC
:10116000000088E48093770081E4809378008CE429
:101170008093790080937A008FE480937B001092B3
:101180007C0085E08093680010926900D9D7EFEF6A
:10119000FFEF2CE2E150F0402040E1F700C00000FA
:1011A0008FEF9FEFECE281509040E040E1F700C00C
:1011B0000000EFD8FFEF2FEF8CE2F150204080408D
:1011C000E1F700C00000B12CA12CC12CD12C8091E2
:1011D0006600882309F44BC0C09880918B008D363F
:1011E00019F08337C9F13FC00CE810E00115110573
:1011F000C9F16AE370E0C80103D37C01009791F163
:10120000AC01401B510BB801CE01019604D31D82E5
:10121000CE010196CDD2A82E6BE370E0C701F0D2CB
:101220008C01B7016F5F7F4F009731F440916600EA
:1012300050E045575F4F01C0AC014E195F09415066
:101240005109CE010196E7D21D82CE010196B0D29E
:10125000682F8A2DC5DDCACF80918C00AA24A39463
:10126000813309F0A12C10928B001092660093E05C
:10127000C916D10449F480917500882321F082E0D9
:10128000AAD910927500CEDB19821A821B821C82A9
:1012900000E010E0780183E0EE0CFF1C8A95E1F796
:1012A000F701E156FF4F4F018381882331F0802FF2
:1012B000CEDEC82AD92AF4011382F701E156FF4F86
:1012C0008281813009F043C0AA2009F440C0809196
:1012D000680081113CC080917700882329F061E685
:1012E00070E087E790E081D24AE050E0BE016F5F96
:1012F0007F4FC8019FD2BE016F5F7F4F87E790E0AD
:1013000074D263E670E087E790E06FD2C701815640
:101310009F4F7C01FC0180814AE050E0BE016F5F7D
:101320007F4F90E087D2BE016F5F7F4F87E790E0ED
:101330005CD2E7E7F0E001900020E9F73197E7574A
:10134000F040E0936800F7011282BB24B3940F5F72
:101350001F4F0230110509F09DCFB11002C0B12C12
:1013600036CFAA2009F433CFEBD6809168008111E3
:10137000FCCFF5CF991B79E004C0991F961708F0B0
:10138000961B881F7A95C9F7809508955058BB27FA
:10139000AA270ED070C161D130F066D120F031F4AF
:1013A0009F3F11F41EF456C10EF4E095E7FB4CC1CB
:1013B000E92F72D180F3BA17620773078407950784
:1013C00018F071F49EF58AC10EF4E0950B2EBA2F39
:1013D000A02D0B01B90190010C01CA01A00111243B
:1013E000FF27591B99F0593F50F4503E68F11A16E7
:1013F000F040A22F232F342F4427585FF3CF469578
:1014000037952795A795F0405395C9F77EF41F1699
:10141000BA0B620B730B840BBAF09150A1F0FF0F63
:10142000BB1F661F771F881FC2F70EC0BA0F621F4F
:10143000731F841F48F4879577956795B795F7953F
:101440009E3F08F0B3CF9395880F08F09927EE0FD1
:10145000979587950895D4D008F481E008950CD02D
:101460000AC102D140F0F9D030F021F45F3F19F009
:10147000EBC0511134C1EEC00FD198F39923C9F3D9
:101480005523B1F3951B550BBB27AA27621773078A
:10149000840738F09F5F5F4F220F331F441FAA1F3E
:1014A000A9F333D00E2E3AF0E0E830D091505040FE
:1014B000E695001CCAF729D0FE2F27D0660F771FAC
:1014C000881FBB1F261737074807AB07B0E809F08E
:1014D000BB0B802DBF01FF2793585F4F2AF09E3F23
:1014E000510568F0B1C0FBC05F3FECF3983EDCF300
:1014F000869577956795B795F7959F5FC9F7880F9C
:10150000911D9695879597F90895E1E0660F771FED
:10151000881FBB1F621773078407BA0720F0621B7E
:10152000730B840BBA0BEE1F88F7E0950895BCD0BF
:1015300088F09F5790F0B92F9927B751A0F0D1F0BC
:10154000660F771F881F991F1AF0BA95C9F712C046
:10155000B13081F0C3D0B1E00895C0C0672F782FBB
:101560008827B85F39F0B93FCCF3869577956795B2
:10157000B395D9F73EF490958095709561957F4F1E
:101580008F4F9F4F0895E89409C097FB3EF49095C4
:101590008095709561957F4F8F4F9F4F9923A9F04C
:1015A000F92F96E9BB279395F695879577956795DB
:1015B000B795F111F8CFFAF4BB0F11F460FF1BC01F
:1015C0006F5F7F4F8F4F9F4F16C0882311F096E9B2
:1015D00011C0772321F09EE8872F762F05C0662360
:1015E00071F096E8862F70E060E02AF09A95660F19
:1015F000771F881FDAF7880F9695879597F90895D2
:10160000990F0008550FAA0BE0E8FEEF1616170613
:10161000E807F907C0F012161306E407F50798F07B
:10162000621B730B840B950B39F40A2661F0232B94
:10163000242B252B21F408950A2609F4A140A69510
:101640008FEF811D811D089597F99F6780E870E0F5
:1016500060E008959FEF80EC089500240A94161628
:10166000170618060906089500240A941216130690
:10167000140605060895092E0394000C11F488231E
:1016800052F0BB0F40F4BF2B11F460FF04C06F5F3A
:101690007F4F8F4F9F4F089557FD9058440F551F10
:1016A00059F05F3F71F04795880F97FB991F61F0E4
:1016B0009F3F79F087950895121613061406551F5B
:1016C000F2CF4695F1DF08C0161617061806991FC7
:1016D000F1CF86957105610508940895E894BB27BC
:1016E00066277727CB0197F908950BD0C4CFB5DFD4
:1016F00028F0BADF18F0952309F0A6CFABCF11245C
:10170000EECFCADFA0F3959FD1F3950F50E0551FA0
:10171000629FF001729FBB27F00DB11D639FAA2746
:10172000F00DB11DAA1F649F6627B00DA11D661F95
:10173000829F2227B00DA11D621F739FB00DA11DB6
:10174000621F839FA00D611D221F749F3327A00D70
:10175000611D231F849F600D211D822F762F6A2F0C
:1017600011249F5750408AF0E1F088234AF0EE0F91
:10177000FF1FBB1F661F771F881F91505040A9F79E
:101780009E3F510570F060CFAACF5F3FECF3983ECB
:10179000DCF3869577956795B795F795E7959F5F05
:1017A000C1F7FE2B880F911D9695879597F908959F
:1017B000FC0188279927E89421912032E9F3293008
:1017C00010F02E30C8F32B3239F02D3231F46894FA
:1017D00003C04FD0820F911D219120532A30C8F3AE
:1017E0001EF4909581959F4F0895FB01DC010D90AB
:1017F0000020E9F7119701900D920020E1F708957C
:10180000FC018191861721F08823D9F79927089543
:101810003197CF010895FB01DC014150504048F061
:1018200001900D920020C9F701C01D924150504017
:10183000E0F70895FB019F01E8944230BCF0453287
:10184000ACF44A3029F497FB1EF4909581959F4F94
:10185000642F772726D0805D8A330CF0895D8193D1
:10186000CB010097A9F716F45DE251931082C901EC
:1018700008C07AE0979F902D879F802D910D1124AD
:101880000895DC01FC01672F71917723E1F732970E
:1018900004C07C916D9370836291AE17BF07C8F34B
:1018A0000895AA1BBB1B51E107C0AA1FBB1FA617A7
:1018B000B70710F0A61BB70B881F991F5A95A9F7F9
:0E18C00080959095BC01CD010895F894FFCF5E
:0618CE00013B003A00009E
:00000001FF
