:100000001CC036C035C034C033C032C093C230C00B
:100010002FC02EC0D3C12DC02BC05BC029C028C0AB
:1000200027C026C025C012C5D3C537C50FC5D0C54A
:1000300090C5F4C50BC5F2C509C511241FBECFE597
:10004000D4E0DEBFCDBF10E0A0E6B0E0EAE4F7E127
:1000500002C005900D92A636B107D9F710E0A6E6CA
:10006000B0E001C01D92A53CB107E1F799D76BCB79
:10007000C7CF1F920F920FB60F9211248F939F93A9
:10008000EF93FF938CB1882321F090EE980F9E356B
:10009000B8F490916600911113C0E0916700F0E010
:1000A000E557FF4F8083909167009F5F90936700B3
:1000B000811106C0809167008093660010926700EE
:1000C000FF91EF919F918F910F900FBE0F901F9016
:1000D00018951F920F920FB60F9211248F939F9332
:1000E000EF93FF939091690080916800981760F4F6
:1000F000E091690081E08E0F80936900F0E0E9589B
:10010000FF4F80818CB913C0909169008091680085
:10011000981307C0809169008F5F809369001CB8B5
:1001200006C0109269001092680010927700FF914B
:10013000EF919F918F910F900FBE0F901F90189588
:1001400010BC8FE589B98AB1886D8AB986E880BD0F
:1001500078940895E7E7F0E001900020E9F73197FF
:10016000E757F040E093680080916800882371F0C1
:100170008091690081110AC0E0916900F0E0E958BE
:10018000FF4F80818CB981E08093690008950F93BF
:100190001F93A82FB0E000916A0010916B0020918E
:1001A0006C0030916D00AA0FBB1F613029F5AD01C5
:1001B0004F5F5F4FE1E0F0E0CF0102C0880F991F71
:1001C0004A95E2F7AC0140955095662757FD60953A
:1001D000762FCF0102C0880F991FAA95E2F7AA27B0
:1001E00097FDA095BA2F802B912BA22BB32B4823E0
:1001F00059236A237B2322C0E1E0F0E0AF010A2EFD
:1002000002C0440F551F0A94E2F7409550956627A7
:1002100057FD6095762F4023512362237323119657
:10022000CF0102C0880F991FAA95E2F7AA2797FD70
:10023000A095BA2F482B592B6A2B7B2B40936A0031
:1002400050936B0060936C0070936D0060916A0036
:1002500070916B0080916C0090916D001F910F91D7
:100260004EC00F931F93482F50E0440F551FE1E0FD
:10027000F0E0BF01042E02C0660F771F0A94E2F778
:1002800060957095882777FD8095982F00916A007A
:1002900010916B0020916C0030916D0060237123F0
:1002A000822393234F5F5F4F8F0102C0000F111F06
:1002B0004A95E2F700951095222717FD2095322FD9
:1002C000602371238223932360936A0070936B00F1
:1002D00080936C0090936D001F910F9110C010924D
:1002E0006A0010926B0010926C0010926D0060E03A
:1002F00070E0CB0104C084B3876084BB0895CF92C3
:10030000DF92EF92FF922FE130E0E1E0F0E0AF0109
:10031000022E02C0440F551F0A94E2F76A01EE2430
:10032000D7FCE094FE2CC622D722E822F922CD2861
:10033000CE28CF2811F0AA9A01C0AA98A89AA89806
:100340002150310920F7A99AA89AA898A998FF9056
:10035000EF90DF90CF9008958CE287BBC29A81E541
:100360008DB91092A00010929F001092A1001092DF
:10037000A2001092A3001092A4001092A500109267
:10038000A7001092A6001092A8001092A900109247
:10039000AA001092AB001092AC00789408956F9A66
:1003A000C29886E08FB98AE080936E0080919F00AA
:1003B00080936F0081E08093700008951F920F92E8
:1003C0000FB60F9211242F933F934F936F937F9308
:1003D0008F939F93EF93FF938091700023E0622FA0
:1003E00007D7482F8091700003D791112BC0C29A74
:1003F00020917200309173008FB1282B30937300DD
:1004000020937200442319F0EFEFE40F01C0E1E004
:10041000209172003091730064E0369527956A95BB
:10042000E1F787E0E89FF0011124E156FF4F2483B4
:1004300081E08383C29842FF02C087E001C086E06A
:100440008FB91FC080917000622FD2D6913031F4E5
:100450004295440F440F407C4FB913C08FB190E0D8
:10046000982F882790937300809372008091720078
:100470009091730088279F7090937300809372000F
:100480001FB8809170008F5F809370008091700022
:10049000863011F410927000FF91EF919F918F912F
:1004A0007F916F914F913F912F910F900FBE0F90C1
:1004B0001F9018958091710008951092710080919D
:1004C0007200909173000895C2986F9882FD02C0E7
:1004D00096E001C097E09FB9779BFECF8295880F89
:1004E000880F807C8FB9779BFECF8FB190E0982FDB
:1004F000882790937300809372008091720090918E
:10050000730088279F7090937300809372001FB8C8
:10051000779BFECF80917200909173002FB1822B58
:100520009093730080937200C29A809172009091B0
:10053000730008951F920F920FB60F9211248F939C
:100540008EB58C7F8EBD81E0809375008F910F906A
:100550000FBE0F901F9018952F923F924F925F926F
:100560006F927F928F929F92AF92BF92CF92DF92C3
:10057000EF92FF920F931F93CF93DF9300D000D0A1
:1005800000D0CDB7DEB7282E8EB58C7F8EBDF89407
:1005900080917500882319F08AB59BB502C08CB58F
:1005A0009DB578942DEAA22E20E0B22E08EB10E043
:1005B0002EEA30E03E832D8337EBC32E30E0D32E7E
:1005C000E12CF12C2C01612C712C49825A826B8216
:1005D0007C8247E0942E54E0852E332433948E2D74
:1005E000AD81BE8115964D915D916D917C9118976D
:1005F000411551056105710509F483C1F60190812A
:10060000292F2D7F253019F0923009F07AC18215FB
:1006100009F477C149805A806B807C804419550960
:1006200066097709AD81BE8115964D935D936D93F3
:100630007C931897452B462B472B09F062C11092EB
:100640007700F60190819530C1F1973021F092301A
:1006500009F057C1FBC09E9DF0019F9DF00D112434
:10066000E156FF4F8481AD81BE818C93D6013C92CF
:100670009081F5018081981778F4D8018C91816080
:100680008C9320E030E040E251E4ED81FE81618115
:100690007281838194812BC1F80180818E7F808358
:1006A00020E030E040E251E4AD81BE8111966D91D1
:1006B0007D918D919C911497FAC0D3DD8091760045
:1006C000815080937600D8018C9181FFBBC09E9CA5
:1006D000F0019F9CF00D1124E156FF4F9481992366
:1006E00019F094819F3FC1F59E9CF0019F9CF00DF5
:1006F0001124E156FF4F9481992321F08E7FF80158
:10070000808303C08160D8018C939E9CF0019F9CE4
:10071000F00D1124E156FF4F8481ED81FE8180832D
:10072000D8018C9182608C938AEF482E55245A947C
:10073000612C712C4582568267827086412C90E430
:10074000592E9CE1692E96E4792E41825282638271
:100750007482F6018082D5C0848190E0AD81BE8133
:100760002C91821B9109BC01882777FD8095982FD9
:100770004AD69B01AC0160E07AEF8FE797E4ADD5F4
:100780002B013C0120E030E0A901A3D587FD07C083
:10079000ED81FE8141825282638274820CC077FABD
:1007A000709477F87094AD81BE8111964D925D92F0
:1007B0006D927C9214979E9CF0019F9CF00D1124E9
:1007C000E156FF4F8481AD81BE818C93D5011C928F
:1007D000D8018C918E7F8C9384818B30B8F020E08F
:1007E00030E040E251E4ED81FE81618172818381DC
:1007F0009481B9D6DAD5AD81BE8115966D937D937E
:100800008D939C931897F601308217C0648170E035
:1008100080E090E0F8D5AD81BE8111962D913D919B
:100820004D915C9114979FD6C0D5ED81FE81658373
:10083000768387839087D6018C92F80180818D7FA3
:1008400080835FC0E6E0D601EC935BC00ADD809157
:1008500076008150809376009E9CF0019F9CF00D65
:100860001124E156FF4F8481AD81BE818C93D60166
:100870008C929081F5018081D801981708F58C91B0
:1008800081608C93808190E0ED81FE812081821BCC
:100890009109BC01882777FD8095982FB4D5AD814B
:1008A000BE8111962D913D914D915C9114975BD62F
:1008B0007CD5ED81FE81658376838783908721C017
:1008C0008C918E7F8C93ED81FE81808190E0D501AB
:1008D0002C91821B9109BC01882777FD8095982F68
:1008E00092D5ED81FE8121813281438154813BD6B5
:1008F0005CD5AD81BE8115966D937D938D939C9350
:100900001897BFEFEB1AFB0AECE0AE0EB11C045FC8
:100910001F4F2D813E81245F3F4F3E832D833CE05E
:10092000C30ED11C42E0E416F10409F058CE8091C8
:10093000B3009091B400A091B500B091B6008F3F84
:100940005FEF9507A105B10530F40097A105B1054A
:1009500031F09C0102C02FEF3FEFE1E003C02FEF29
:100960003FEFE0E08091BF009091C000A091C100F6
:10097000B091C200A90160E070E084179507A60756
:10098000B70728F40097A105B10549F09C013BBDCC
:100990002ABD1DBC1CBC8EB583608EBD02C0E1119A
:1009A000F6CF26960FB6F894DEBF0FBECDBFDF910F
:1009B000CF911F910F91FF90EF90DF90CF90BF905C
:1009C000AF909F908F907F906F905F904F903F90EF
:1009D0002F9008952F923F924F925F926F927F9245
:1009E0008F929F92AF92BF92CF92DF92EF92FF923F
:1009F0000F931F93CF93DF9367EBA62E60E0B62E85
:100A00007DEAC72E70E0D72EE8EBEE2EE0E0FE2E5A
:100A1000CEEAD0E000E010E0F7E09F2EA6EF2A2E0D
:100A200033243A94412C512CBAEC6B2EB8E07B2E37
:100A3000802ED5012C91822F90E0FC013197EA3075
:100A4000F10508F0EBC0ED5EFF4F09948091760050
:100A5000843008F0E3C08D819E81AF81B885892BF9
:100A60008A2B8B2B09F4DAC02F5FF5012083909E2F
:100A7000F001919EF00D1124E156FF4F848188838F
:100A8000802F6ADDD7016C916170802F80DB8091AF
:100A900076008F5F80937600C1C0F701808180FF70
:100AA00011C0909EF001919EF00D1124E156FF4F70
:100AB0004481288130E0285F3F4F50E024173507FC
:100AC000A4F42AC0811128C0888190E0909EF00192
:100AD000919EF00D1124E156FF4F2481AC01485046
:100AE000510930E0241735078CF0909EF001919E5B
:100AF000F00D1124E156FF4F84818883D5019C922B
:100B00004D825E826F827886882D87C00A97F601B3
:100B10002081821B910909C0D6012C918881F101A5
:100B2000E81BF109CF01820F911DBC01882777FDD9
:100B30008095982F68D429813A814B815C8113D5A7
:100B400034D46D837E838F839887E4E0D501EC9362
:100B500065C0909EF001919EF00D1124E156FF4F6B
:100B60009481D6018C91981303C0F501108256C070
:100B70008481888344E0D5014C939481D6018C9183
:100B8000981740F4F7018081816080838C9190E018
:100B9000288108C0D7018C918E7F8C93888190E04A
:100BA000F6012081821B9109BC01882777FD809581
:100BB000982F29D429813A814B815C81D4D49B011F
:100BC000AC0123D3F2D36D837E838F83988726C0B5
:100BD0008881882361F0909EF001919EF00D112490
:100BE000E156FF4F9481992361F08F3FB9F0909EB9
:100BF000F001919EF00D1124E156FF4F84818F3F4B
:100C000069F48EB58C7F8EBD8CB59DB5A0E0B0E04B
:100C10008D839E83AF83B88782E09EDC0F5F1F4F7A
:100C2000FCE0AF0EB11C4CE0C40ED11C5CE0E50E44
:100C3000F11C2C960230110509F0FACEDF91CF910C
:100C40001F910F91FF90EF90DF90CF90BF90AF90EA
:100C50009F908F907F906F905F904F903F902F90DC
:100C60000895CF93DF93462F282F30E097E0899F98
:100C7000F0011124E156FF4F8481681709F47BC00D
:100C800054818CE0829FF001839FF00D1124E35585
:100C9000FF4F5183608380E090E0A8ECB2E4828350
:100CA0009383A483B5838385651710F48E7F01C079
:100CB00081608387642F70E087E0829FF001839FCB
:100CC000F00D1124E156FF4F8481DB01A81BB1090F
:100CD000AB30B1051CF08481841788F087E0829FD7
:100CE000F001839FF00D1124E156FF4F848190E0C5
:100CF000861B970B0B97DCF084814817C0F48CE0BF
:100D0000829FE001839FD00D1124C355DF4F20E067
:100D100030E040E251E46A817B818C819D8123D463
:100D200044D36E837F838887998781E023C087E0DF
:100D3000829FF001839FF00D1124E156FF4F8481C3
:100D40009CE0929FE001939FD00D1124C355DF4F8B
:100D5000681B7109882777FD8095982F54D32A81C5
:100D60003B814C815D81FFD320D36E837F83888755
:100D7000998784E08A87DF91CF9108950F931F931D
:100D8000CF93DF93EB011091740088818E7F88836D
:100D90000AE080E099DB24E0969587952A95E1F7B3
:100DA000212F30E02817390711F40F5F01C000E050
:100DB000182F0A3070F320917400281719F0288139
:100DC0002160288310937400DF91CF911F910F91C0
:100DD00008954F925F926F927F928F929F92AF92FF
:100DE000BF92CF92DF92EF92FF920F931F93CF9318
:100DF000DF931F92CDB7DEB708EB10E03DEA632E1C
:100E000030E0732E512C4AEF842E99249A94A12C11
:100E1000B12CC12C50E4D52E5CE1E52E56E4F52E24
:100E200064E0462E1982BE016F5F7F4F852DA6DFDD
:100E30008B3738F08456F3018083F80180818E7FF0
:100E400003C0F801808181608083F8018081826025
:100E500080833A971082F30186829782A086B186BA
:100E6000C282D382E482F582F801319740825394A2
:100E7000045F1F4FFCE06F0E711C82E05812D2CF4E
:100E8000109276001EBC80E098E49BBD8ABD89B7B5
:100E9000806189BF78940F90DF91CF911F910F915E
:100EA000FF90EF90DF90CF90BF90AF909F908F908A
:100EB0007F906F905F904F900895482F282F30E0DB
:100EC0008CE0489FF0011124E355FF4F8285882371
:100ED00019F08385837F838787E0829FF001839F5A
:100EE000F00D1124E156FF4F948181819817C1F1D3
:100EF00094818581981304C086818F5F868301C0A9
:100F0000168287E0829FF001839FF00D1124E15645
:100F1000FF4F8481858386818A30C9F580818183F2
:100F20008481808381E082831382168281E090E055
:100F300002C0880F991F4A95E2F74CE0429FF001EA
:100F4000439FF00D1124E355FF4F2285211121C04D
:100F5000238522FF02C0286001C0246023870895F2
:100F60008481811108C081E090E002C0880F991F40
:100F70004A95E2F702C080E090E047E0429FF0012E
:100F8000439FF00D1124E156FF4F1682089580E033
:100F900090E00895BA9AC29AB89AC09A08950895AE
:100FA000CF93DF9300D000D01F92CDB7DEB7D4D956
:100FB000C7D8F0DFA0D90DDF2FEF8FEF9CE22150D3
:100FC00080409040E1F700C0000088E48093770003
:100FD00081E4809378008CE48093790080937A0098
:100FE0008FE480937B0010927C0085E08093680002
:100FF00010926900AFD8EFEFFFEF2CE2E150F04024
:101000002040E1F700C000008FEF9FEFECE281503D
:101010009040E040E1F700C00000C1D9FFEF2FEFA2
:101020008CE2F15020408040E1F700C00000A12C8C
:10103000912CC12CD12C87E0B82E8091660088239A
:1010400009F44BC0C09880918B008D3619F083371E
:10105000C9F13FC00CE810E001151105C9F16AE3C0
:1010600070E0C8010BD37C01009791F1AC01401BEB
:10107000510BB801CE0101960CD31D82CE01019611
:10108000D5D2982E6BE370E0C701F8D28C01B7017E
:101090006F5F7F4F009731F44091660050E04557F5
:1010A0005F4F01C0AC014E195F0941505109CE019B
:1010B0000196EFD21D82CE010196B8D2682F892DFC
:1010C000D0DDCACF80918C0099249394813309F0AC
:1010D000912C10928B001092660093E0C916D104F7
:1010E00049F480917500882321F082E035DA10926E
:1010F000750070DC19821A821B821C8200E010E0ED
:10110000B09E7001B19EF00C1124F701E156FF4F23
:101110007F018381882331F0802FCFDEC82AD92A2E
:10112000F7011382B09EF001B19EF00D1124E1563B
:10113000FF4F8281813009F048C0992009F445C0F1
:1011400080916800811141C080917700882329F047
:1011500061E670E087E790E086D24AE050E0BE01A9
:101160006F5F7F4FC801A4D2BE016F5F7F4F87E7DB
:1011700090E079D263E670E087E790E074D2B09EA9
:101180007001B19EF00C1124C70181569F4F7C0164
:10119000FC0180814AE050E0BE016F5F7F4F90E02C
:1011A00087D2BE016F5F7F4F87E790E05CD2E7E7B1
:1011B000F0E001900020E9F73197E757F040E09325
:1011C0006800F7011282AA24A3940F5F1F4F023018
:1011D000110509F095CFA11002C0A12C2ECF9920A6
:1011E00009F42BCFB7D7809168008111FCCFF5CFE0
:1011F000991B79E004C0991F961708F0961B881F69
:101200007A95C9F7809508955058BB27AA270ED024
:1012100070C161D130F066D120F031F49F3F11F4FC
:101220001EF456C10EF4E095E7FB4CC1E92F72D1D4
:1012300080F3BA17620773078407950718F071F4F3
:101240009EF58AC10EF4E0950B2EBA2FA02D0B014E
:10125000B90190010C01CA01A0011124FF27591BFB
:1012600099F0593F50F4503E68F11A16F040A22F01
:10127000232F342F4427585FF3CF46953795279572
:10128000A795F0405395C9F77EF41F16BA0B620B71
:10129000730B840BBAF09150A1F0FF0FBB1F661FB8
:1012A000771F881FC2F70EC0BA0F621F731F841FFB
:1012B00048F4879577956795B795F7959E3F08F021
:1012C000B3CF9395880F08F09927EE0F97958795E0
:1012D0000895D4D008F481E008950CD00AC102D159
:1012E00040F0F9D030F021F45F3F19F0EBC051111C
:1012F00034C1EEC00FD198F39923C9F35523B1F34C
:10130000951B550BBB27AA2762177307840738F074
:101310009F5F5F4F220F331F441FAA1FA9F333D0D3
:101320000E2E3AF0E0E830D091505040E695001C87
:10133000CAF729D0FE2F27D0660F771F881FBB1F43
:10134000261737074807AB07B0E809F0BB0B802D1D
:10135000BF01FF2793585F4F2AF09E3F510568F069
:10136000B1C0FBC05F3FECF3983EDCF38695779508
:101370006795B795F7959F5FC9F7880F911D96956B
:10138000879597F90895E1E0660F771F881FBB1FC7
:10139000621773078407BA0720F0621B730B840B74
:1013A000BA0BEE1F88F7E0950895BCD088F09F57E0
:1013B00090F0B92F9927B751A0F0D1F0660F771FA1
:1013C000881F991F1AF0BA95C9F712C0B13081F081
:1013D000C3D0B1E00895C0C0672F782F8827B85FC9
:1013E00039F0B93FCCF3869577956795B395D9F7E2
:1013F0003EF490958095709561957F4F8F4F9F4FEC
:101400000895E89409C097FB3EF4909580957095F7
:1014100061957F4F8F4F9F4F9923A9F0F92F96E940
:10142000BB279395F695879577956795B795F111B5
:10143000F8CFFAF4BB0F11F460FF1BC06F5F7F4F52
:101440008F4F9F4F16C0882311F096E911C0772364
:1014500021F09EE8872F762F05C0662371F096E86D
:10146000862F70E060E02AF09A95660F771F881F3C
:10147000DAF7880F9695879597F90895990F0008E0
:10148000550FAA0BE0E8FEEF16161706E807F90756
:10149000C0F012161306E407F50798F0621B730BF1
:1014A000840B950B39F40A2661F0232B242B252B72
:1014B00021F408950A2609F4A140A6958FEF811D15
:1014C000811D089597F99F6780E870E060E00895B6
:1014D0009FEF80EC089500240A941616170618064C
:1014E0000906089500240A94121613061406050628
:1014F0000895092E0394000C11F4882352F0BB0FB9
:1015000040F4BF2B11F460FF04C06F5F7F4F8F4F1B
:101510009F4F089557FD9058440F551F59F05F3F56
:1015200071F04795880F97FB991F61F09F3F79F005
:1015300087950895121613061406551FF2CF469587
:10154000F1DF08C0161617061806991FF1CF869509
:101550007105610508940895E894BB2766277727ED
:10156000CB0197F908950BD0C4CFB5DF28F0BADFCF
:1015700018F0952309F0A6CFABCF1124EECFCADF28
:10158000A0F3959FD1F3950F50E0551F629FF00196
:10159000729FBB27F00DB11D639FAA27F00DB11DEF
:1015A000AA1F649F6627B00DA11D661F829F222778
:1015B000B00DA11D621F739FB00DA11D621F839FFF
:1015C000A00D611D221F749F3327A00D611D231FD5
:1015D000849F600D211D822F762F6A2F11249F5723
:1015E00050408AF0E1F088234AF0EE0FFF1FBB1F46
:1015F000661F771F881F91505040A9F79E3F5105E5
:1016000070F060CFAACF5F3FECF3983EDCF3869595
:1016100077956795B795F795E7959F5FC1F7FE2B8F
:10162000880F911D9695879597F90895FC01882755
:101630009927E89421912032E9F3293010F02E30D7
:10164000C8F32B3239F02D3231F4689403C04FD0F7
:10165000820F911D219120532A30C8F31EF49095DA
:1016600081959F4F0895FB01DC010D900020E9F763
:10167000119701900D920020E1F70895FC018191EE
:10168000861721F08823D9F7992708953197CF013C
:101690000895FB01DC014150504048F001900D924B
:1016A0000020C9F701C01D9241505040E0F7089555
:1016B000FB019F01E8944230BCF04532ACF44A3063
:1016C00029F497FB1EF4909581959F4F642F7727FF
:1016D00026D0805D8A330CF0895D8193CB01009721
:1016E000A9F716F45DE251931082C90108C07AE0AF
:1016F000979F902D879F802D910D11240895DC01D7
:10170000FC01672F71917723E1F7329704C07C9138
:101710006D9370836291AE17BF07C8F30895AA1B3B
:10172000BB1B51E107C0AA1FBB1FA617B70710F0CC
:10173000A61BB70B881F991F5A95A9F780959095FE
:0A174000BC01CD010895F894FFCF1D
:06174A00013B003A000023
:00000001FF
