:1000000012C02CC02BC02AC029C028C079C226C06B
:1000100025C024C0B9C123C021C04FC01FC01EC00D
:100020001DC01CC01BC011241FBECFE5D4E0DEBF25
:10003000CDBF10E0A0E6B0E0E8E8F4E102C0059032
:100040000D92A436B107D9F710E0A4E6B0E001C0E4
:100050001D92A13BB107E1F749D614CAD1CF1F9237
:100060000F920FB60F9211248F939F93EF93FF93EC
:10007000809164008D7F809364009CB1E091660064
:10008000F0E0E657FF4F9083809166008F5F80938A
:100090006600911109C0809166008093650080918F
:1000A0006400826080936400FF91EF919F918F9133
:1000B0000F900FBE0F901F9018951F920F920FB6C2
:1000C0000F9211248F939F93EF93FF939091680069
:1000D00080916700981788F4809164008E7F8093E8
:1000E0006400E091680081E08E0F80936800F0E08A
:1000F000EA58FF4F80818CB911C0909168008091BF
:100100006700981306C0809168008F5F8093680035
:100110001CB880916400816080936400FF91EF912E
:100120009F918F910F900FBE0F901F90189510BC4C
:100130008FE589B98AB1886D8AB986E880BD7894DF
:100140000895809167008823A9F08091680081114B
:1001500011C0809164008E7F80936400E0916800FC
:10016000F0E0EA58FF4F80818CB9809168008F5F82
:100170008093680008950F931F93A82FB0E000911B
:10018000690010916A0020916B0030916C00AA0FF9
:10019000BB1F613029F5AD014F5F5F4FE1E0F0E03B
:1001A000CF0102C0880F991F4A95E2F7AC01409534
:1001B0005095662757FD6095762FCF0102C0880FB6
:1001C000991FAA95E2F7AA2797FDA095BA2F802B31
:1001D000912BA22BB32B482359236A237B2322C0C4
:1001E000E1E0F0E0AF010A2E02C0440F551F0A946F
:1001F000E2F740955095662757FD6095762F40238E
:100200005123622373231196CF0102C0880F991FD7
:10021000AA95E2F7AA2797FDA095BA2F482B592B4C
:100220006A2B7B2B4093690050936A0060936B00AC
:1002300070936C006091690070916A0080916B000E
:1002400090916C001F910F914EC00F931F93482FF8
:1002500050E0440F551FE1E0F0E0BF01042E02C062
:10026000660F771F0A94E2F760957095882777FDEF
:100270008095982F0091690010916A0020916B0081
:1002800030916C0060237123822393234F5F5F4F73
:100290008F0102C0000F111F4A95E2F700951095DB
:1002A000222717FD2095322F602371238223932369
:1002B0006093690070936A0080936B0090936C0068
:1002C0001F910F9110C01092690010926A00109255
:1002D0006B0010926C0060E070E0CB0104C084B34E
:1002E000876084BB0895CF92DF92EF92FF922FE157
:1002F00030E0E1E0F0E0AF01022E02C0440F551FF4
:100300000A94E2F76A01EE24D7FCE094FE2CC622A0
:10031000D722E822F922CD28CE28CF2811F0AA9A98
:1003200001C0AA98A89AA8982150310920F7A99A43
:10033000A89AA898A998FF90EF90DF90CF90089581
:100340008CE287BBC29A81E58DB910929F00109212
:100350009E001092A0001092A1001092A200109294
:10036000A3001092A400789408956F9AC29886E032
:100370008FB98AE080936D0080919E0080936E001B
:1003800081E080936F0008951F920F920FB60F9235
:1003900011242F933F934F936F937F938F939F934A
:1003A000EF93FF9380916F0023E0622FB9D5482F20
:1003B00080916F00B5D591112BC0C29A2091710028
:1003C000309172008FB1282B30937200209371000E
:1003D000442319F0EFEFE40F01C0E0E02091710039
:1003E0003091720064E0369527956A95E1F787E0D1
:1003F000E89FF0011124E256FF4F248381E08383BC
:10040000C29842FF02C087E001C086E08FB91FC0DA
:1004100080916F00622F84D5913031F44295440F62
:10042000440F407C4FB913C08FB190E0982F8827BC
:10043000909372008093710080917100909172008E
:1004400088279F7090937200809371001FB88091ED
:100450006F008F5F80936F0080916F00833011F485
:1004600010926F00FF91EF919F918F917F916F910B
:100470004F913F912F910F900FBE0F901F901895A5
:100480008091700008951092700080917100909199
:1004900072000895C2986F9882FD02C096E001C074
:1004A00097E09FB9779BFECF8295880F880F807C5D
:1004B0008FB9779BFECF8FB190E0982F88279093CC
:1004C0007200809371008091710090917200882772
:1004D0009F7090937200809371001FB8779BFECF3E
:1004E00080917100909172002FB1822B90937200D5
:1004F00080937100C29A809171009091720008956A
:100500001F920F920FB60F9211248F938EB58C7F8E
:100510008EBD81E0809374008F910F900FBE0F907D
:100520001F901895CF92DF92EF92FF92CF93582FA2
:100530009EB59C7F9EBDF89480917400882319F02D
:100540002AB53BB502C02CB53DB578948091AB007F
:100550009091AC00A091AD00B091AE000097A105C4
:10056000B10509F434C14091AF00642F6D7F65304F
:1005700019F0423009F02BC1552309F428C1821B20
:10058000930BA109B1098093AB009093AC00A093A9
:10059000AD00B093AE00892B8A2B8B2B09F017C1CD
:1005A00010927600453039F1473021F0423009F0A1
:1005B0000EC1D0C08091A2008093A60081E08093FC
:1005C000AF0020919E009091A5008091B000291766
:1005D00010F4816001C08E7F8093B00020E030E095
:1005E00040E251E46091A7007091A8008091A900B9
:1005F0009091AA00E2C080E028DE809175008150D1
:1006000080937500C091B000C1FFA0C08091A2008E
:10061000882321F08091A2008F3F61F58091A20094
:10062000882311F0CE7F01C0C160C093B0008091DB
:10063000A2008093A6008091B00082608093B000F9
:100640008AEF9FEFA0E0B0E08093AB009093AC0006
:10065000A093AD00B093AE0080E090E4ACE1B6E4CE
:100660008093A7009093A800A093A900B093AA003C
:1006700084E06DC06091A20070E08091A600681BCC
:100680007109882777FD8095982F55D59B01AC017E
:1006900060E07AEF8FE797E4B8D46B017C0120E04B
:1006A00030E0A901AED487FF04C0F7FAF094F7F860
:1006B000F094C092A700D092A800E092A900F09216
:1006C000AA008091A2008093A6001092A5008C2F12
:1006D0008E7F8093B0008091A2008B30C0F020E02C
:1006E00030E040E251E46091A7007091A800809151
:1006F000A9009091AA00CFD5F0D46093AB0070937D
:10070000AC008093AD009093AE0081E019C0609181
:10071000A20070E080E090E00ED52091A70030911B
:10072000A8004091A9005091AA00B5D5D6D46093F5
:10073000AB007093AC008093AD009093AE0084E06A
:100740008093AF00CC7FC093B00041C086E080931F
:10075000AF003DC080E079DD8091750081508093CD
:1007600075006091A2006093A60084E08093AF00C2
:1007700040919E003091A5002091B000832F90E021
:1007800070E0431740F421602093B0009C01261BC9
:10079000370BB90105C02E7F2093B000681B790B81
:1007A000882777FD8095982FC6D42091A700309197
:1007B000A8004091A9005091AA006DD58ED46093F5
:1007C000AB007093AC008093AD009093AE0080912D
:1007D000AB009091AC00A091AD00B091AE008F3F06
:1007E0003FEF9307A105B10528F40097A105B105D6
:1007F00051F002C08FEF9FEF9BBD8ABD1DBC1CBC9A
:100800008EB583608EBDCF91FF90EF90DF90CF903B
:1008100008952091AF002330C9F130F4213061F008
:10082000223009F4D0C00895253009F4CCC020F05E
:10083000263009F487C0089580917500843008F04F
:10084000E1C08091AB009091AC00A091AD00B0915F
:10085000AE00892B8A2B8B2B09F4D4C0213011F4E4
:1008600082E001C085E08093AF008091A200809378
:10087000A60080E057DE6091B000617080E07BDC14
:10088000809175008F5F8093750008958091B0000E
:100890004091A60080FF0AC02091A200842F90E022
:1008A000089630E08217930774F429C0811127C09D
:1008B000642F70E08091A2009B012850310990E0E4
:1008C00082179307ACF08091A2008093A60087E086
:1008D0008093AF0080E090E0A1EEB0E08093AB00A9
:1008E0009093AC00A093AD00B093AE0080E089C0BF
:1008F0006A5071098091A500681B710908C0809138
:10090000A50066EF7FEF641B7109680F711D8827D2
:1009100077FD8095982F0FD42091A7003091A800E3
:100920004091A9005091AA00B6D4D7D36093AB00F0
:100930007093AC008093AD009093AE0084E0809300
:10094000AF0008958091A2002091A500821303C0FA
:100950001092AF0008956091A2006093A60084E019
:100960008093AF004091A2003091B000822F90E0C0
:1009700070E0421740F431603093B0009C01261BB8
:10098000370BB90105C03E7F3093B000681B790B6F
:10099000882777FD8095982FCED32091A70030919E
:1009A000A8004091A9005091AA0075D49B01AC0108
:1009B000C4D293D36093AB007093AC008093AD002E
:1009C0009093AE0008958091A600882331F0909115
:1009D000A200992331F08F3FA9F08091A2008F3FB0
:1009E00089F48EB58C7F8EBD8CB59DB5A0E0B0E04E
:1009F0008093AB009093AC00A093AD00B093AE0099
:100A000081E090CD0895CF93DF93462F282F30E0DB
:100A100097E0899FF0011124E256FF4F8481681707
:100A200009F47BC054818CE0829FF001839FF00D1C
:100A30001124EB55FF4F5183608380E090E0A8ECD8
:100A4000B2E482839383A483B5838385651710F40E
:100A50008E7F01C081608387642F70E087E0829F72
:100A6000F001839FF00D1124E256FF4F8481DB01DA
:100A7000A81BB109AB30B1051CF08481841788F044
:100A800087E0829FF001839FF00D1124E256FF4F13
:100A9000848190E0861B970B0B97DCF084814817CC
:100AA000C0F48CE0829FE001839FD00D1124CB55D0
:100AB000DF4F20E030E040E251E46A817B818C81AD
:100AC0009D81E9D30AD36E837F838887998781E0EC
:100AD00023C087E0829FF001839FF00D1124E2562E
:100AE000FF4F84819CE0929FE001939FD00D1124E1
:100AF000CB55DF4F681B7109882777FD8095982FAC
:100B00001AD32A813B814C815D81C5D3E6D26E83A5
:100B10007F838887998784E08A87DF91CF910895C2
:100B20000F931F93CF93DF93EB0110917300888194
:100B30008E7F88830AE080E0ADDC24E0969587957F
:100B40002A95E1F7212F30E02817390711F40F5FBC
:100B500001C000E0182F0A3070F3209173002817AD
:100B600019F028812160288310937300DF91CF91C1
:100B70001F910F910895CF93DF931F92CDB7DEB7EA
:100B80001982BE016F5F7F4F80E0CADF9091B00095
:100B90008B3728F084568093A5009E7F01C091601A
:100BA0009093B0008091B00082608093B00010926A
:100BB000A6008AEF9FEFA0E0B0E08093AB00909397
:100BC000AC00A093AD00B093AE0080E090E4ACE147
:100BD000B6E48093A7009093A800A093A900B093D7
:100BE000AA0084E08093AF00109275001EBC80E0E4
:100BF00098E49BBD8ABD89B7806189BF78940F90C6
:100C0000DF91CF910895482F282F30E08CE0489F46
:100C1000F0011124EB55FF4F8285882319F083855D
:100C2000837F838787E0829FF001839FF00D1124EB
:100C3000E256FF4F948181819817C1F1948185819B
:100C4000981304C086818F5F868301C0168287E077
:100C5000829FF001839FF00D1124E256FF4F8481A3
:100C6000858386818A30C9F58081818384818083F0
:100C700081E082831382168281E090E002C0880FB7
:100C8000991F4A95E2F74CE0429FF001439FF00D17
:100C90001124EB55FF4F2285211121C0238522FF0E
:100CA00002C0286001C024602387089584818111D7
:100CB00008C081E090E002C0880F991F4A95E2F7D2
:100CC00002C080E090E047E0429FF001439FF00DBA
:100CD0001124E256FF4F1682089580E090E00895B7
:100CE000BA9AC29AB89AC09A08950895CF93DF939A
:100CF00000D000D01F92CDB7DEB722DB18DAF0DFCC
:100D0000EEDA39DF2FEF8FEF9CE2215080409040E8
:100D1000E1F700C0000088E48093760081E48093CE
:100D200077008CE480937800809379008FE480933F
:100D30007A0010927B0085E0809367001092680033
:100D400000DA8091640080FFFCCF2FEF8FEF9CE2F0
:100D5000215080409040E1F700C000002FEF8FEF5E
:100D60009CE2215080409040E1F700C00000FDDA95
:100D70002FEF8FEF9CE2215080409040E1F700C0C0
:100D8000000010E0C12CD12C81E6B82E80916400C7
:100D900081FF5FC0C0986AE870E086E790E011D3F9
:100DA00010926800E6E7F0E001900020E9F7319743
:100DB000E657F040E0936700C4D98091640080FF5B
:100DC000FCCF80918A008D3619F0833799F138C0B5
:100DD0000BE810E00115110591F16AE370E0C8011C
:100DE000E5D27C01009759F1AC01401B510BB801D1
:100DF000CE010196EDD21D82CE010196AFD2A82E72
:100E00006BE370E0C701D2D28C01AC014E195F09CF
:100E100041505109B7016F5F7F4FCE010196D8D283
:100E20001D82CE0101969AD210926600682F8A2DFB
:100E3000EADDD0CF80918B0011E0813309F010E022
:100E40001092660010928A00809164008D7F8093DA
:100E5000640021E0C216D10449F480917400882313
:100E600021F081E05FDB10927400D3DC19821A82DA
:100E70001B821C828091A100882331F080E0C3DEB8
:100E8000C82AD92A1092A1008091A000813009F0CF
:100E90007DCF112309F47ACF5D9BFECFBCB8809142
:100EA0007600882329F060E670E086E790E073D250
:100EB0004AE050E0BE016F5F7F4F80E090E097D244
:100EC000BE016F5F7F4F86E790E065D262E670E01B
:100ED00086E790E060D280919E004AE050E0BE013B
:100EE0006F5F7F4F90E083D2BE016F5F7F4F86E7D9
:100EF00090E051D210926800E6E7F0E00190002007
:100F0000E9F73197E657F040E09367001092A000B0
:100F100018D98091640080FFFCCF1092760036CF04
:100F2000991B79E004C0991F961708F0961B881F3B
:100F30007A95C9F7809508955058BB27AA270ED0F7
:100F400070C161D130F066D120F031F49F3F11F4CF
:100F50001EF456C10EF4E095E7FB4CC1E92F72D1A7
:100F600080F3BA17620773078407950718F071F4C6
:100F70009EF58AC10EF4E0950B2EBA2FA02D0B0121
:100F8000B90190010C01CA01A0011124FF27591BCE
:100F900099F0593F50F4503E68F11A16F040A22FD4
:100FA000232F342F4427585FF3CF46953795279545
:100FB000A795F0405395C9F77EF41F16BA0B620B44
:100FC000730B840BBAF09150A1F0FF0FBB1F661F8B
:100FD000771F881FC2F70EC0BA0F621F731F841FCE
:100FE00048F4879577956795B795F7959E3F08F0F4
:100FF000B3CF9395880F08F09927EE0F97958795B3
:101000000895D4D008F481E008950CD00AC102D12B
:1010100040F0F9D030F021F45F3F19F0EBC05111EE
:1010200034C1EEC00FD198F39923C9F35523B1F31E
:10103000951B550BBB27AA2762177307840738F047
:101040009F5F5F4F220F331F441FAA1FA9F333D0A6
:101050000E2E3AF0E0E830D091505040E695001C5A
:10106000CAF729D0FE2F27D0660F771F881FBB1F16
:10107000261737074807AB07B0E809F0BB0B802DF0
:10108000BF01FF2793585F4F2AF09E3F510568F03C
:10109000B1C0FBC05F3FECF3983EDCF386957795DB
:1010A0006795B795F7959F5FC9F7880F911D96953E
:1010B000879597F90895E1E0660F771F881FBB1F9A
:1010C000621773078407BA0720F0621B730B840B47
:1010D000BA0BEE1F88F7E0950895BCD088F09F57B3
:1010E00090F0B92F9927B751A0F0D1F0660F771F74
:1010F000881F991F1AF0BA95C9F712C0B13081F054
:10110000C3D0B1E00895C0C0672F782F8827B85F9B
:1011100039F0B93FCCF3869577956795B395D9F7B4
:101120003EF490958095709561957F4F8F4F9F4FBE
:101130000895E89409C097FB3EF4909580957095CA
:1011400061957F4F8F4F9F4F9923A9F0F92F96E913
:10115000BB279395F695879577956795B795F11188
:10116000F8CFFAF4BB0F11F460FF1BC06F5F7F4F25
:101170008F4F9F4F16C0882311F096E911C0772337
:1011800021F09EE8872F762F05C0662371F096E840
:10119000862F70E060E02AF09A95660F771F881F0F
:1011A000DAF7880F9695879597F90895990F0008B3
:1011B000550FAA0BE0E8FEEF16161706E807F90729
:1011C000C0F012161306E407F50798F0621B730BC4
:1011D000840B950B39F40A2661F0232B242B252B45
:1011E00021F408950A2609F4A140A6958FEF811DE8
:1011F000811D089597F99F6780E870E060E0089589
:101200009FEF80EC089500240A941616170618061E
:101210000906089500240A941216130614060506FA
:101220000895092E0394000C11F4882352F0BB0F8B
:1012300040F4BF2B11F460FF04C06F5F7F4F8F4FEE
:101240009F4F089557FD9058440F551F59F05F3F29
:1012500071F04795880F97FB991F61F09F3F79F0D8
:1012600087950895121613061406551FF2CF46955A
:10127000F1DF08C0161617061806991FF1CF8695DC
:101280007105610508940895E894BB2766277727C0
:10129000CB0197F908950BD0C4CFB5DF28F0BADFA2
:1012A00018F0952309F0A6CFABCF1124EECFCADFFB
:1012B000A0F3959FD1F3950F50E0551F629FF00169
:1012C000729FBB27F00DB11D639FAA27F00DB11DC2
:1012D000AA1F649F6627B00DA11D661F829F22274B
:1012E000B00DA11D621F739FB00DA11D621F839FD2
:1012F000A00D611D221F749F3327A00D611D231FA8
:10130000849F600D211D822F762F6A2F11249F57F5
:1013100050408AF0E1F088234AF0EE0FFF1FBB1F18
:10132000661F771F881F91505040A9F79E3F5105B7
:1013300070F060CFAACF5F3FECF3983EDCF3869568
:1013400077956795B795F795E7959F5FC1F7FE2B62
:10135000880F911D9695879597F90895FC01882728
:101360009927E89421912032E9F3293010F02E30AA
:10137000C8F32B3239F02D3231F4689403C056D0C3
:10138000820F911D219120532A30C8F31EF49095AD
:1013900081959F4F0895FB01DC010D900020E9F736
:1013A000119701900D920020E1F70895FC018191C1
:1013B000861721F08823D9F7992708953197CF010F
:1013C0000895FB01DC0101900D920020E1F70895E2
:1013D000FB01DC014150504048F001900D9200208B
:1013E000C9F701C01D9241505040E0F70895FB013C
:1013F0009F01E8944230BCF04532ACF44A3029F405
:1014000097FB1EF4909581959F4F642F772726D0E8
:10141000805D8A330CF0895D8193CB010097A9F739
:1014200016F45DE251931082C90108C07AE0979FDB
:10143000902D879F802D910D11240895DC01FC01D2
:10144000672F71917723E1F7329704C07C916D93F8
:1014500070836291AE17BF07C8F30895AA1BBB1B28
:1014600051E107C0AA1FBB1FA617B70710F0A61BA4
:10147000B70B881F991F5A95A9F780959095BC01C5
:08148000CD010895F894FFCF9F
:041488003B003A00EB
:00000001FF
