:1000000012C02CC02BC02AC029C028C079C226C06B
:1000100025C024C0B9C123C021C04FC01FC01EC00D
:100020001DC01CC01BC011241FBECFE5D4E0DEBF25
:10003000CDBF10E0A0E6B0E0E4EDFEE002C0059028
:100040000D92A436B107D9F710E0A4E6B0E001C0E4
:100050001D92AF3AB107E1F7B8D43AC7D1CF1F929A
:100060000F920FB60F9211248F939F93EF93FF93EC
:10007000809164008D7F809364009CB1911109C0D0
:100080008091660080936500809164008260809317
:100090006400E0916600F0E0E657FF4F90838091A6
:1000A00066008F5F80936600FF91EF919F918F9123
:1000B0000F900FBE0F901F9018951F920F920FB6C2
:1000C0000F9211248F939F93EF93FF939091680069
:1000D00080916700981788F4809164008E7F8093E8
:1000E0006400E091680081E08E0F80936800F0E08A
:1000F000EA58FF4F80818CB911C0909168008091BF
:100100006700981306C0809168008F5F8093680035
:100110001CB880916400816080936400FF91EF912E
:100120009F918F910F900FBE0F901F90189510BC4C
:100130008FE589B98AB1886D8AB986E880BD7894DF
:100140000895809167008823A9F08091680081114B
:1001500011C0809164008E7F80936400E0916800FC
:10016000F0E0EA58FF4F80818CB9809168008F5F82
:100170008093680008950F931F93A82FB0E000911B
:10018000690010916A0020916B0030916C00AA0FF9
:10019000BB1F613029F5AD014F5F5F4FE1E0F0E03B
:1001A000CF0102C0880F991F4A95E2F7AC01409534
:1001B0005095662757FD6095762FCF0102C0880FB6
:1001C000991FAA95E2F7AA2797FDA095BA2F802B31
:1001D000912BA22BB32B482359236A237B2322C0C4
:1001E000E1E0F0E0AF010A2E02C0440F551F0A946F
:1001F000E2F740955095662757FD6095762F40238E
:100200005123622373231196CF0102C0880F991FD7
:10021000AA95E2F7AA2797FDA095BA2F482B592B4C
:100220006A2B7B2B4093690050936A0060936B00AC
:1002300070936C006091690070916A0080916B000E
:1002400090916C001F910F914EC00F931F93482FF8
:1002500050E0440F551FE1E0F0E0BF01042E02C062
:10026000660F771F0A94E2F760957095882777FDEF
:100270008095982F0091690010916A0020916B0081
:1002800030916C0060237123822393234F5F5F4F73
:100290008F0102C0000F111F4A95E2F700951095DB
:1002A000222717FD2095322F602371238223932369
:1002B0006093690070936A0080936B0090936C0068
:1002C0001F910F9110C01092690010926A00109255
:1002D0006B0010926C0060E070E0CB0104C084B34E
:1002E000876084BB0895CF92DF92EF92FF922FE157
:1002F00030E0E1E0F0E0AF01022E02C0440F551FF4
:100300000A94E2F76A01EE24D7FCE094FE2CC622A0
:10031000D722E822F922CD28CE28CF2811F0AA9A98
:1003200001C0AA98A89AA8982150310920F7A99A43
:10033000A89AA898A998FF90EF90DF90CF90089581
:100340008CE287BBC29A81E58DB910929F00109212
:100350009E001092A0001092A1001092A200109294
:10036000A3001092A400789408956F9AC29886E032
:100370008FB98AE080936D0080919E0080936E001B
:1003800081E080936F0008951F920F920FB60F9235
:1003900011242F933F934F936F937F938F939F934A
:1003A000EF93FF9380916F0023E0622FB2D3482F29
:1003B00080916F00AED391112BC0C29A2091710031
:1003C000309172008FB1282B30937200209371000E
:1003D000442319F0EFEFE40F01C0E0E02091710039
:1003E0003091720064E0369527956A95E1F787E0D1
:1003F000E89FF0011124E256FF4F248381E08383BC
:10040000C29842FF02C087E001C086E08FB91FC0DA
:1004100080916F00622F7DD3913031F44295440F6B
:10042000440F407C4FB913C08FB190E0982F8827BC
:10043000909372008093710080917100909172008E
:1004400088279F7090937200809371001FB88091ED
:100450006F008F5F80936F0080916F00833011F485
:1004600010926F00FF91EF919F918F917F916F910B
:100470004F913F912F910F900FBE0F901F901895A5
:100480008091700008951092700080917100909199
:1004900072000895C2986F9882FD02C096E001C074
:1004A00097E09FB9779BFECF8295880F880F807C5D
:1004B0008FB9779BFECF8FB190E0982F88279093CC
:1004C0007200809371008091710090917200882772
:1004D0009F7090937200809371001FB8779BFECF3E
:1004E00080917100909172002FB1822B90937200D5
:1004F00080937100C29A809171009091720008956A
:100500001F920F920FB60F9211248F938EB58C7F8E
:100510008EBD81E0809374008F910F900FBE0F907D
:100520001F901895CF939EB59C7F9EBDF8942CB5D7
:100530003DB57894109276002091AB003091AC00DC
:10054000232B09F4CBC09091AD00292F2D7F2530AE
:1005500019F0923009F0C2C0882309F4BFC010928C
:10056000AC001092AB0010927600953039F19730C4
:1005700021F0923009F0B2C078C080919E00809343
:10058000A60081E08093AD0020919E009091A5008F
:100590008091AE00291710F4816001C08E7F809396
:1005A000AE0020E030E040E251E46091A70070919D
:1005B000A8008091A9009091AA008AC080E045DE41
:1005C00080917500815080937500C091AE00C1FF8D
:1005D00048C0C098109276008091A600C11107C053
:1005E00090919E00682F70E0691B710905C06091B1
:1005F0009E0070E0681B7109882777FD8095982F11
:100600002AD39B01AC0160E07FEF8FE797E48DD2A6
:100610006093A7007093A8008093A9009093AA000C
:1006200080919E008093A6001092A50060919E008C
:1006300070E080E090E00FD32091A7003091A800F7
:100640004091A9005091AA0092D3D7D27093AC00E8
:100650006093AB0081E08093AD00CC7FC093AE008F
:100660003DC086E08093AD0039C080E0EEDD809132
:10067000750081508093750060919E006093A60084
:1006800084E08093AD0040919E003091A5002091C0
:10069000AE00832F90E070E0431740F42160209378
:1006A000AE009C01261B370BB90105C02E7F20939D
:1006B000AE00681B790B882777FD8095982FCBD2E9
:1006C0002091A7003091A8004091A9005091AA0064
:1006D0004ED393D27093AC006093AB008091AB008B
:1006E0009091AC009C01215031092E3F3F4F10F0FA
:1006F0008FEF9FEF9BBD8ABD1DBC1CBC8EB5836078
:100700008EBDCF9108952091AD00233071F118F482
:10071000213039F0B6C0243021F0263009F478C0F9
:10072000B0C080917500843008F0ABC08091AB0000
:100730009091AC00892B09F4A4C0213011F482E01F
:1007400001C085E08093AD0080919E008093A6005B
:1007500080E0E8DE6091AE00617080E00CDD8091A9
:1007600075008F5F809375008CC08091AE004091C2
:10077000A60080FF0AC020919E00842F90E008967A
:1007800030E08217930774F424C0811122C0642FD3
:1007900070E080919E009B012850310990E0821703
:1007A000930784F080919E008093A60087E0809359
:1007B000AD0080E197E29093AC008093AB0080E0C5
:1007C000B1DE5FC06A5071098091A500681B710994
:1007D00008C08091A50066EF7FEF641B7109680F68
:1007E000711D882777FD8095982F35D22091A7001D
:1007F0003091A8004091A9005091AA00B8D2FDD133
:100800007093AC006093AB0084E08093AD0039C07E
:1008100080919E002091A500821303C01092AD002C
:1008200030C060919E006093A60084E08093AD008C
:1008300040919E003091AE00822F90E070E0421710
:1008400040F431603093AE009C01261B370BB90198
:1008500005C03E7F3093AE00681B790B882777FD7B
:100860008095982FF8D12091A7003091A800409151
:10087000A9005091AA007BD2C0D17093AC006093C4
:10088000AB008FEF9FE80197F1F700C000000895DB
:100890000F931F93CF93DF93EB0110917300888127
:1008A0008E7F88830AE080E0F5DD24E096958795C9
:1008B0002A95E1F7212F30E02817390711F40F5F4F
:1008C00001C000E0182F0A3070F320917300281740
:1008D00019F028812160288310937300DF91CF9154
:1008E0001F910F910895CF93DF931F92CDB7DEB77D
:1008F0001982BE016F5F7F4F80E0CADF9091AE002A
:100900008B3728F084568093A5009E7F01C09160AC
:100910009093AE008091AE0082608093AE00109202
:10092000A6008AEF9FEF9093AC008093AB0080E02D
:1009300090E4ACE1B6E48093A7009093A800A09364
:10094000A900B093AA0084E08093AD0010927500D6
:100950001EBC80E098E49BBD8ABD89B7806189BFD9
:1009600078940F90DF91CF910895282F30E097E091
:10097000899FF0011124E256FF4F948181819817DD
:10098000E9F094818581981304C086818F5F868306
:1009900001C0168287E0829FF001839FF00D112431
:1009A000E256FF4F8481858386818A3041F48081BD
:1009B00081838481808381E08283138216820895FB
:1009C000BA9AC29AB89AC09A0895CF93DF9300D08A
:1009D00000D0CDB7DEB7B4DCAADBF2DF80DC83DF8A
:1009E0002FEF8FEF9CE2215080409040E1F700C054
:1009F000000088E48093760081E4809377008CE4A3
:100A000080937800809379008FE480937A0010922D
:100A10007B0085E0809367001092680092DB8091F4
:100A2000640080FFFCCF2FEF8FEF9CE221508040CD
:100A30009040E1F700C000002FEF8FEF9CE22150C3
:100A400080409040E1F700C000008FDC2FEF8FEF77
:100A50009CE2215080409040E1F700C0000080916E
:100A60007400882321F081E05DDD109274004BDE7C
:100A700019821A821B821C828091A100882321F096
:100A800080E073DF1092A100109276008091A000A8
:100A9000813029F780917600882329F060E670E0A4
:100AA00086E790E0C7D14AE050E0BE016F5F7F4F1C
:100AB00080E090E0CAD1BE016F5F7F4F86E790E093
:100AC000B9D162E670E086E790E0B4D180919E00F3
:100AD0004AE050E0BE016F5F7F4F90E0B6D1BE01AB
:100AE0006F5F7F4F86E790E0A5D110926800E6E740
:100AF000F0E001900020E9F73197E657F040E093ED
:100B000067001092A0001DDB8091640080FFFCCF85
:100B1000A6CF991B79E004C0991F961708F0961B81
:100B2000881F7A95C9F7809508950CD0E6C0DED06D
:100B300040F0D5D030F021F45F3F19F0C7C051111B
:100B400010C1CAC0EBD098F39923C9F35523B1F370
:100B5000951B550BBB27AA2762177307840738F02C
:100B60009F5F5F4F220F331F441FAA1FA9F333D08B
:100B70000E2E3AF0E0E830D091505040E695001C3F
:100B8000CAF729D0FE2F27D0660F771F881FBB1FFB
:100B9000261737074807AB07B0E809F0BB0B802DD5
:100BA000BF01FF2793585F4F2AF09E3F510568F021
:100BB0008DC0D7C05F3FECF3983EDCF38695779508
:100BC0006795B795F7959F5FC9F7880F911D969523
:100BD000879597F90895E1E0660F771F881FBB1F7F
:100BE000621773078407BA0720F0621B730B840B2C
:100BF000BA0BEE1F88F7E095089598D088F09F57BC
:100C000090F0B92F9927B751A0F0D1F0660F771F58
:100C1000881F991F1AF0BA95C9F712C0B13081F038
:100C20009FD0B1E008959CC0672F782F8827B85FC8
:100C300039F0B93FCCF3869577956795B395D9F799
:100C40003EF490958095709561957F4F8F4F9F4FA3
:100C50000895E89409C097FB3EF4909580957095AF
:100C600061957F4F8F4F9F4F9923A9F0F92F96E9F8
:100C7000BB279395F695879577956795B795F1116D
:100C8000F8CFFAF4BB0F11F460FF1BC06F5F7F4F0A
:100C90008F4F9F4F16C0882311F096E911C077231C
:100CA00021F09EE8872F762F05C0662371F096E825
:100CB000862F70E060E02AF09A95660F771F881FF4
:100CC000DAF7880F9695879597F9089597F99F67B2
:100CD00080E870E060E008959FEF80EC08950024C4
:100CE0000A941616170618060906089500240A9491
:100CF00012161306140605060895092E0394000C17
:100D000011F4882352F0BB0F40F4BF2B11F460FFA5
:100D100004C06F5F7F4F8F4F9F4F089557FD9058CE
:100D2000440F551F59F05F3F71F04795880F97FBAF
:100D3000991F61F09F3F79F0879508951216130669
:100D40001406551FF2CF4695F1DF08C01616170698
:100D50001806991FF1CF86957105610508940895CD
:100D6000E894BB2766277727CB0197F908950BD026
:100D7000C4CFB5DF28F0BADF18F0952309F0A6CF6D
:100D8000ABCF1124EECFCADFA0F3959FD1F3950F1F
:100D900050E0551F629FF001729FBB27F00DB11DFF
:100DA000639FAA27F00DB11DAA1F649F6627B00D8F
:100DB000A11D661F829F2227B00DA11D621F739F78
:100DC000B00DA11D621F839FA00D611D221F749F86
:100DD0003327A00D611D231F849F600D211D822FCD
:100DE000762F6A2F11249F5750408AF0E1F0882314
:100DF0004AF0EE0FFF1FBB1F661F771F881F915021
:100E00005040A9F79E3F510570F060CFAACF5F3FD9
:100E1000ECF3983EDCF3869577956795B795F79553
:100E2000E7959F5FC1F7FE2B880F911D96958795DB
:100E300097F90895FB01DC010D900020E9F7119767
:100E400001900D920020E1F70895FB019F01E894C5
:100E50004230BCF04532ACF44A3029F497FB1EF422
:100E6000909581959F4F642F77271ED0805D8A33A0
:100E70000CF0895D8193CB010097A9F716F45DE230
:100E800051931082C90100C0DC01FC01672F7191F0
:100E90007723E1F7329704C07C916D937083629160
:100EA000AE17BF07C8F30895AA1BBB1B51E107C0CB
:100EB000AA1FBB1FA617B70710F0A61BB70B881FEA
:100EC000991F5A95A9F780959095BC01CD01089579
:040ED000F894FFCFC4
:040ED4002C003A00B4
:00000001FF
