:1000000012C02CC02BC02AC029C028C07BC226C069
:1000100025C024C0BBC123C021C051C01FC01EC009
:100020001DC01CC01BC011241FBECFE5D4E0DEBF25
:10003000CDBF10E0A0E6B0E0E4E4F4E102C005903A
:100040000D92A636B107D9F710E0A6E6B0E001C0E0
:100050001D92A23BB107E1F74BD6F2C9D1CF1F9257
:100060000F920FB60F9211248F939F93EF93FF93EC
:100070008CB1882321F090EE980F9E35B8F49091C2
:100080006600911113C0E0916700F0E0E557FF4F63
:100090008083909167009F5F90936700811106C0F5
:1000A000809167008093660010926700FF91EF9146
:1000B0009F918F910F900FBE0F901F9018951F92D8
:1000C0000F920FB60F9211248F939F93EF93FF938C
:1000D0009091690080916800981760F4E091690040
:1000E00081E08E0F80936900F0E0E958FF4F808136
:1000F0008CB913C09091690080916800981307C073
:10010000809169008F5F809369001CB806C01092CF
:1001100069001092680010927700FF91EF919F9113
:100120008F910F900FBE0F901F90189510BC8FE508
:1001300089B98AB1886D8AB986E880BD78940895B6
:10014000E7E7F0E001900020E9F73197E757F0404A
:10015000E093680080916800882371F080916900C5
:1001600081110AC0E0916900F0E0E958FF4F8081F9
:100170008CB981E08093690008950F931F93A82F95
:10018000B0E000916A0010916B0020916C003091FA
:100190006D00AA0FBB1F613029F5AD014F5F5F4FA6
:1001A000E1E0F0E0CF0102C0880F991F4A95E2F725
:1001B000AC0140955095662757FD6095762FCF018D
:1001C00002C0880F991FAA95E2F7AA2797FDA0956C
:1001D000BA2F802B912BA22BB32B482359236A23B0
:1001E0007B2322C0E1E0F0E0AF010A2E02C0440F01
:1001F000551F0A94E2F740955095662757FD609584
:10020000762F40235123622373231196CF0102C01E
:10021000880F991FAA95E2F7AA2797FDA095BA2FF4
:10022000482B592B6A2B7B2B40936A0050936B0011
:1002300060936C0070936D0060916A0070916B0028
:1002400080916C0090916D001F910F914EC00F93A3
:100250001F93482F50E0440F551FE1E0F0E0BF012D
:10026000042E02C0660F771F0A94E2F7609570951E
:10027000882777FD8095982F00916A0010916B0078
:1002800020916C0030916D006023712382239323B1
:100290004F5F5F4F8F0102C0000F111F4A95E2F7B9
:1002A00000951095222717FD2095322F602371238A
:1002B0008223932360936A0070936B0080936C0099
:1002C00090936D001F910F9110C010926A001092D0
:1002D0006B0010926C0010926D0060E070E0CB013A
:1002E00004C084B3876084BB0895CF92DF92EF92FD
:1002F000FF922FE130E0E1E0F0E0AF01022E02C01A
:10030000440F551F0A94E2F76A01EE24D7FCE094EB
:10031000FE2CC622D722E822F922CD28CE28CF28CB
:1003200011F0AA9A01C0AA98A89AA8982150310958
:1003300020F7A99AA89AA898A998FF90EF90DF9023
:10034000CF9008958CE287BBC29A81E58DB9109257
:10035000A00010929F001092A1001092A200109293
:10036000A3001092A4001092A500789408956F9AAB
:10037000C29886E08FB98AE080936E0080919F00DA
:1003800080936F0081E08093700008951F920F9218
:100390000FB60F9211242F933F934F936F937F9338
:1003A0008F939F93EF93FF938091700023E0622FD0
:1003B0009CD5482F8091700098D591112BC0C29A7E
:1003C00020917200309173008FB1282B309373000D
:1003D00020937200442319F0EFEFE40F01C0E0E036
:1003E000209172003091730064E0369527956A95EC
:1003F000E1F787E0E89FF0011124E156FF4F2483E5
:1004000081E08383C29842FF02C087E001C086E09A
:100410008FB91FC080917000622F67D5913031F481
:100420004295440F440F407C4FB913C08FB190E008
:10043000982F8827909373008093720080917200A8
:100440009091730088279F7090937300809372003F
:100450001FB8809170008F5F809370008091700052
:10046000833011F410927000FF91EF919F918F9162
:100470007F916F914F913F912F910F900FBE0F90F1
:100480001F901895809171000895109271008091CD
:100490007200909173000895C2986F9882FD02C017
:1004A00096E001C097E09FB9779BFECF8295880FB9
:1004B000880F807C8FB9779BFECF8FB190E0982F0B
:1004C00088279093730080937200809172009091BE
:1004D000730088279F7090937300809372001FB8F9
:1004E000779BFECF80917200909173002FB1822B89
:1004F0009093730080937200C29A809172009091E1
:10050000730008951F920F920FB60F9211248F93CC
:100510008EB58C7F8EBD81E0809375008F910F909A
:100520000FBE0F901F901895CF92DF92EF92FF921F
:10053000CF93582F9EB59C7F9EBDF89480917500F7
:10054000882319F02AB53BB502C02CB53DB5789487
:100550008091AC009091AD00A091AE00B091AF0041
:100560000097A105B10509F434C14091B000642F92
:100570006D7F653019F0423009F02BC1552309F425
:1005800028C1821B930BA109B1098093AC00909301
:10059000AD00A093AE00B093AF00892B8A2B8B2BBC
:1005A00009F017C110927700453039F1473021F03A
:1005B000423009F00EC1D0C08091A3008093A70003
:1005C00081E08093B00020919F009091A6008091DF
:1005D000B100291710F4816001C08E7F8093B100B3
:1005E00020E030E040E251E46091A8007091A90061
:1005F0008091AA009091AB00E2C080E028DE80915B
:100600007600815080937600C091B100C1FFA0C0F8
:100610008091A300882321F08091A3008F3F61F592
:100620008091A300882311F0CE7F01C0C160C093E8
:10063000B1008091A3008093A7008091B1008260F7
:100640008093B1008AEF9FEFA0E0B0E08093AC0010
:100650009093AD00A093AE00B093AF0080E090E423
:10066000ACE1B6E48093A8009093A900A093AA00FF
:10067000B093AB0084E06DC06091A30070E0809106
:10068000A700681B7109882777FD8095982F38D5BA
:100690009B01AC0160E07AEF8FE797E49BD46B019C
:1006A0007C0120E030E0A90191D487FF04C0F7FA73
:1006B000F094F7F8F094C092A800D092A900E092CC
:1006C000AA00F092AB008091A3008093A700109243
:1006D000A6008C2F8E7F8093B1008091A3008B3079
:1006E000C0F020E030E040E251E46091A800709159
:1006F000A9008091AA009091AB00B2D5D3D46093A9
:10070000AC007093AD008093AE009093AF0081E099
:1007100019C06091A30070E080E090E0F1D42091D6
:10072000A8003091A9004091AA005091AB0098D543
:10073000B9D46093AC007093AD008093AE009093F9
:10074000AF0084E08093B000CC7FC093B10041C083
:1007500086E08093B0003DC080E079DD8091760036
:100760008150809376006091A3006093A70084E09D
:100770008093B00040919F003091A6002091B1007D
:10078000832F90E070E0431740F421602093B10084
:100790009C01261B370BB90105C02E7F2093B100A9
:1007A000681B790B882777FD8095982FA9D4209115
:1007B000A8003091A9004091AA005091AB0050D5FB
:1007C00071D46093AC007093AD008093AE009093B1
:1007D000AF008091AC009091AD00A091AE00B091BF
:1007E000AF008F3F3FEF9307A105B10528F40097B5
:1007F000A105B10551F002C08FEF9FEF9BBD8ABDEF
:100800001DBC1CBC8EB583608EBDCF91FF90EF9058
:10081000DF90CF9008952091B0002330C9F130F4DB
:10082000213061F0223009F4D0C00895253009F458
:10083000CCC020F0263009F487C00895809176005E
:10084000843008F0E1C08091AC009091AD00A0919F
:10085000AE00B091AF00892B8A2B8B2B09F4D4C04A
:10086000213011F482E001C085E08093B0008091D6
:10087000A3008093A70080E057DE6091B100617013
:1008800080E07BDC809176008F5F80937600089516
:100890008091B1004091A70080FF0AC02091A30081
:1008A000842F90E0089630E08217930774F429C0F3
:1008B000811127C0642F70E08091A3009B01285014
:1008C000310990E082179307ACF08091A3008093E8
:1008D000A70087E08093B00080E090E0A1EEB0E058
:1008E0008093AC009093AD00A093AE00B093AF00A6
:1008F00080E089C06A5071098091A600681B710967
:1009000008C08091A60066EF7FEF641B7109680F35
:10091000711D882777FD8095982FF2D32091A8002C
:100920003091A9004091AA005091AB0099D4BAD35C
:100930006093AC007093AD008093AE009093AF00D5
:1009400084E08093B00008958091A3002091A600D8
:10095000821303C01092B00008956091A3006093C9
:10096000A70084E08093B0004091A3003091B100D3
:10097000822F90E070E0421740F431603093B10074
:100980009C01261B370BB90105C03E7F3093B10097
:10099000681B790B882777FD8095982FB1D320911C
:1009A000A8003091A9004091AA005091AB0058D402
:1009B0009B01AC01A7D276D36093AC007093AD00DD
:1009C0008093AE009093AF0008958091A700882394
:1009D00031F09091A300992331F08F3FA9F08091DD
:1009E000A3008F3F89F48EB58C7F8EBD8CB59DB5ED
:1009F000A0E0B0E08093AC009093AD00A093AE0077
:100A0000B093AF0081E090CD0895CF93DF93462F50
:100A1000282F30E097E0899FF0011124E156FF4F25
:100A20008481681709F47BC054818CE0829FF001B7
:100A3000839FF00D1124EA55FF4F5183608380E0BE
:100A400090E0A8ECB2E482839383A483B58383858A
:100A5000651710F48E7F01C081608387642F70E07A
:100A600087E0829FF001839FF00D1124E156FF4F34
:100A70008481DB01A81BB109AB30B1051CF0848176
:100A8000841788F087E0829FF001839FF00D112486
:100A9000E156FF4F848190E0861B970B0B97DCF0AB
:100AA00084814817C0F48CE0829FE001839FD00DC1
:100AB0001124CA55DF4F20E030E040E251E46A8162
:100AC0007B818C819D81CCD3EDD26E837F8388879F
:100AD000998781E023C087E0829FF001839FF00D1A
:100AE0001124E156FF4F84819CE0929FE001939F87
:100AF000D00D1124CA55DF4F681B7109882777FD77
:100B00008095982FFDD22A813B814C815D81A8D3AD
:100B1000C9D26E837F838887998784E08A87DF9133
:100B2000CF9108950F931F93CF93DF93EB01109113
:100B3000740088818E7F88830AE080E0ADDC24E049
:100B4000969587952A95E1F7212F30E028173907E8
:100B500011F40F5F01C000E0182F0A3070F32091EC
:100B60007400281719F028812160288310937400DD
:100B7000DF91CF911F910F910895CF93DF931F9233
:100B8000CDB7DEB71982BE016F5F7F4F80E0CADF4D
:100B90009091B1008B3728F084568093A6009E7FF9
:100BA00001C091609093B1008091B1008260809308
:100BB000B1001092A7008AEF9FEFA0E0B0E0809311
:100BC000AC009093AD00A093AE00B093AF0080E076
:100BD00090E4ACE1B6E48093A8009093A900A093C0
:100BE000AA00B093AB0084E08093B000109276002E
:100BF0001EBC80E098E49BBD8ABD89B7806189BF37
:100C000078940F90DF91CF910895482F282F30E0EE
:100C10008CE0489FF0011124EA55FF4F828588231C
:100C200019F08385837F838787E0829FF001839F0C
:100C3000F00D1124E156FF4F948181819817C1F185
:100C400094818581981304C086818F5F868301C05B
:100C5000168287E0829FF001839FF00D1124E156F8
:100C6000FF4F8481858386818A30C9F580818183A5
:100C70008481808381E082831382168281E090E008
:100C800002C0880F991F4A95E2F74CE0429FF0019D
:100C9000439FF00D1124EA55FF4F2285211121C0F9
:100CA000238522FF02C0286001C0246023870895A5
:100CB0008481811108C081E090E002C0880F991FF3
:100CC0004A95E2F702C080E090E047E0429FF001E1
:100CD000439FF00D1124E156FF4F1682089580E0E6
:100CE00090E00895BA9AC29AB89AC09A0895089561
:100CF000CF93DF9300D000D01F92CDB7DEB722DBB9
:100D000015DAF0DFEEDA39DF2FEF8FEF9CE22150BA
:100D100080409040E1F700C0000088E480937700B5
:100D200081E4809378008CE48093790080937A004A
:100D30008FE480937B0010927C0085E080936800B4
:100D400010926900FDD92FEF8FEF9CE22150804077
:100D50009040E1F700C000002FEF8FEF9CE22150A0
:100D600080409040E1F700C0000001DB2FEF8FEFE3
:100D70009CE2215080409040E1F700C0000010E06C
:100D8000C12CD12C80916600882309F44AC0C098F8
:100D900080918B008D3619F08337C9F13EC00CE885
:100DA00010E001151105C1F16AE370E0C801E3D25A
:100DB0007C01009789F1AC01401B510BB801CE01B9
:100DC0000196E4D21D82CE010196ADD2B82E6BE31E
:100DD00070E0C701D0D28C01B7016F5F7F4F0097E1
:100DE00031F44091660050E045575F4F01C0AC01BF
:100DF0004E195F0941505109CE010196C7D21D829B
:100E0000CE01019690D2682F8B2DFFDDCACF809145
:100E10008C0011E0813309F010E010928B001092E9
:100E2000660021E0C216D10449F480917500882340
:100E300021F081E079DB10927500EDDC19821A82D5
:100E40001B821C828091A200882331F080E0DDDECD
:100E5000C82AD92A1092A2008091A100813009F0FD
:100E600091CF112309F48ECF8091680081118ACF30
:100E700080917700882329F061E670E087E790E0B1
:100E80006FD24AE050E0BE016F5F7F4F80E090E09C
:100E90008CD2BE016F5F7F4F87E790E061D263E63F
:100EA00070E087E790E05CD280919F004AE050E0DC
:100EB000BE016F5F7F4F90E078D2BE016F5F7F4FC2
:100EC00087E790E04DD2E7E7F0E001900020E9F7F6
:100ED0003197E757F040E09368001092A10030D9B5
:100EE000809168008111FCCF4DCF991B79E004C03F
:100EF000991F961708F0961B881F7A95C9F7809559
:100F000008955058BB27AA270ED070C161D130F088
:100F100066D120F031F49F3F11F41EF456C10EF457
:100F2000E095E7FB4CC1E92F72D180F3BA17620755
:100F300073078407950718F071F49EF58AC10EF4C3
:100F4000E0950B2EBA2FA02D0B01B90190010C01D9
:100F5000CA01A0011124FF27591B99F0593F50F4F1
:100F6000503E68F11A16F040A22F232F342F442749
:100F7000585FF3CF469537952795A795F040539541
:100F8000C9F77EF41F16BA0B620B730B840BBAF011
:100F90009150A1F0FF0FBB1F661F771F881FC2F77C
:100FA0000EC0BA0F621F731F841F48F48795779590
:100FB0006795B795F7959E3F08F0B3CF9395880F47
:100FC00008F09927EE0F979587950895D4D008F4E7
:100FD00081E008950CD00AC102D140F0F9D030F080
:100FE00021F45F3F19F0EBC0511134C1EEC00FD1B5
:100FF00098F39923C9F35523B1F3951B550BBB27E0
:10100000AA2762177307840738F09F5F5F4F220F8C
:10101000331F441FAA1FA9F333D00E2E3AF0E0E885
:1010200030D091505040E695001CCAF729D0FE2FD1
:1010300027D0660F771F881FBB1F26173707480763
:10104000AB07B0E809F0BB0B802DBF01FF27935819
:101050005F4F2AF09E3F510568F0B1C0FBC05F3F73
:10106000ECF3983EDCF3869577956795B795F79501
:101070009F5FC9F7880F911D9695879597F90895F9
:10108000E1E0660F771F881FBB1F62177307840795
:10109000BA0720F0621B730B840BBA0BEE1F88F7A4
:1010A000E0950895BCD088F09F5790F0B92F99270C
:1010B000B751A0F0D1F0660F771F881F991F1AF063
:1010C000BA95C9F712C0B13081F0C3D0B1E008952C
:1010D000C0C0672F782F8827B85F39F0B93FCCF3AD
:1010E000869577956795B395D9F73EF49095809559
:1010F000709561957F4F8F4F9F4F0895E89409C079
:1011000097FB3EF490958095709561957F4F8F4F3A
:101110009F4F9923A9F0F92F96E9BB279395F69550
:10112000879577956795B795F111F8CFFAF4BB0FCE
:1011300011F460FF1BC06F5F7F4F8F4F9F4F16C032
:10114000882311F096E911C0772321F09EE8872FBC
:10115000762F05C0662371F096E8862F70E060E078
:101160002AF09A95660F771F881FDAF7880F9695F1
:10117000879597F90895990F0008550FAA0BE0E895
:10118000FEEF16161706E807F907C0F01216130649
:10119000E407F50798F0621B730B840B950B39F489
:1011A0000A2661F0232B242B252B21F408950A26EF
:1011B00009F4A140A6958FEF811D811D089597F92F
:1011C0009F6780E870E060E008959FEF80EC0895ED
:1011D00000240A9416161706180609060895002416
:1011E0000A9412161306140605060895092E039490
:1011F000000C11F4882352F0BB0F40F4BF2B11F404
:1012000060FF04C06F5F7F4F8F4F9F4F089557FD62
:101210009058440F551F59F05F3F71F04795880F64
:1012200097FB991F61F09F3F79F0879508951216FB
:1012300013061406551FF2CF4695F1DF08C01616A7
:1012400017061806991FF1CF869571056105089458
:101250000895E894BB2766277727CB0197F908956F
:101260000BD0C4CFB5DF28F0BADF18F0952309F012
:10127000A6CFABCF1124EECFCADFA0F3959FD1F359
:10128000950F50E0551F629FF001729FBB27F00D34
:10129000B11D639FAA27F00DB11DAA1F649F662789
:1012A000B00DA11D661F829F2227B00DA11D621FD8
:1012B000739FB00DA11D621F839FA00D611D221F92
:1012C000749F3327A00D611D231F849F600D211D76
:1012D000822F762F6A2F11249F5750408AF0E1F019
:1012E00088234AF0EE0FFF1FBB1F661F771F881F62
:1012F00091505040A9F79E3F510570F060CFAACFA2
:101300005F3FECF3983EDCF3869577956795B7954C
:10131000F795E7959F5FC1F7FE2B880F911D969576
:10132000879597F90895FC0188279927E8942191DA
:101330002032E9F3293010F02E30C8F32B3239F087
:101340002D3231F4689403C04FD0820F911D21914A
:1013500020532A30C8F31EF4909581959F4F08952D
:10136000FB01DC010D900020E9F7119701900D922F
:101370000020E1F70895FC018191861721F0882370
:10138000D9F7992708953197CF010895FB01DC0122
:101390004150504048F001900D920020C9F701C023
:1013A0001D9241505040E0F70895FB019F01E894E1
:1013B0004230BCF04532ACF44A3029F497FB1EF4BD
:1013C000909581959F4F642F772726D0805D8A3333
:1013D0000CF0895D8193CB010097A9F716F45DE2CB
:1013E00051931082C90108C07AE0979F902D879F82
:1013F000802D910D11240895DC01FC01672F71915E
:101400007723E1F7329704C07C916D9370836291EA
:10141000AE17BF07C8F30895AA1BBB1B51E107C055
:10142000AA1FBB1FA617B70710F0A61BB70B881F74
:10143000991F5A95A9F780959095BC01CD01089503
:04144000F894FFCF4E
:06144400013B003A00002C
:00000001FF
