:1000000012C02CC02BC02AC029C028C027C026C0BF
:1000100025C024C027C123C021C051C01FC01EC09D
:100020001DC01CC01BC011241FBECFE5D4E0DEBF25
:10003000CDBF10E0A0E6B0E0E2E0FBE002C005903A
:100040000D92A636B107D9F711E0A6E6B0E001C0DF
:100050001D92AC33B107E1F7AFD251C5D1CF1F929A
:100060000F920FB60F9211248F939F93EF93FF93EC
:100070008CB1882321F090EE980F9E35B8F49091C2
:100080006700911113C0E0916800F0E0E857FF4F5E
:100090008083909168009F5F90936800811106C0F3
:1000A000809168008093670010926800FF91EF9143
:1000B0009F918F910F900FBE0F901F9018951F92D8
:1000C0000F920FB60F9211248F939F93EF93FF938C
:1000D00090916A0080916900981760F4E0916A003D
:1000E00081E08E0F80936A00F0E0EC58FF4F808132
:1000F0008CB913C090916A0080916900981307C071
:1001000080916A008F5F80936A001CB806C01092CD
:100110006A001092690010927400FF91EF919F9114
:100120008F910F900FBE0F901F90189510BC8FE508
:1001300089B98AB180698AB986E880BD8C9A8B9822
:1001400078940895E4E7F0E001900020E9F7319712
:10015000E457F040E093690080916900882371F0D2
:1001600080916A0081110AC0E0916A00F0E0EC58C9
:10017000FF4F80818CB981E080936A00089580B33D
:10018000887080BB882331F0949A8AB188648AB9D8
:1001900081E0089580E008958AB1877B8AB9899AC1
:1001A0009498089584B3876084BB0895CF92DF92BA
:1001B000EF92FF922FE130E0E1E0F0E0AF01022E9C
:1001C00002C0440F551F0A94E2F76A01EE24D7FCDF
:1001D000E094FE2CC622D722E822F922CD28CE2890
:1001E000CF2811F0AA9A01C0AA98A89AA8982150DD
:1001F000310920F7A99AA89AA898A998FF90EF909A
:10020000DF90CF9008958EE287BB88B3866088BB6D
:1002100081E58DB980E090E0FC0123E0EE0FFF1F47
:100220002A95E1F7E456FF4F118210821282138261
:10023000148215821682178201968031910561F72A
:10024000789408956F9AC19AC29886E08FB98AE02F
:1002500080936B0080919C0080936C0081E0809380
:100260006D0008951F920F920FB60F921124AF9256
:10027000BF92CF92DF92EF92FF921F932F933F9303
:100280004F935F936F937F938F939F93AF93BF939E
:10029000CF93DF93EF93FF9380916D0023E0622F64
:1002A0004FD2182F80916D004BD2911171C0C29A1C
:1002B000C19A80916F00909170002FB1822B909322
:1002C000700080936F00112319F0CFEFC10F01C0B0
:1002D000CFE0D0E060916F007091700044E07695BF
:1002E00067954A95E1F75E01AA0CBB1CC501845EC7
:1002F0009E4F5C01FC018181681B710980E090E0E8
:10030000BFD26B017C01F501608170E080E090E07C
:10031000B9D29B01AC0160E070E08FE793E41CD29E
:100320009B01AC01C701B60139D37ED273E0CC0F7B
:10033000DD1F7A95E1F7FE01E456FF4F648380915B
:100340006F0090917000A4E096958795AA95E1F7CB
:10035000878381E083838781843120F48481873E91
:1003600008F01482C456DF4F8F81873E28F08C81BD
:10037000843110F48FEF8C83183010F4C29801C0D0
:10038000C19812FF02C087E001C086E08FB91FC08C
:1003900080916D00622FD4D1913031F41295110FFC
:1003A000110F107C1FB913C08FB190E0982F8827D0
:1003B0009093700080936F0080916F009091700017
:1003C00088279F709093700080936F001FB8809172
:1003D0006D008F5F80936D0080916D00803311F40C
:1003E00010926D00FF91EF91DF91CF91BF91AF918E
:1003F0009F918F917F916F915F914F913F912F913D
:100400001F91FF90EF90DF90CF90BF90AF900F9033
:100410000FBE0F901F90189580916E000895109256
:100420006E0080916F00909170000895883010F4F4
:10043000C29801C0C1986F9882FD02C096E001C0C9
:1004400097E09FB9779BFECF8295880F880F807CBD
:100450008FB9779BFECF8FB190E0982F882790932C
:10046000700080936F0080916F00909170008827DA
:100470009F709093700080936F001FB8779BFECFA2
:1004800080916F00909170002FB1822B909370003B
:1004900080936F00C29AC19A80916F009091700012
:1004A0000895EDE1F1E08FEF1082DF0111978C9359
:1004B000329691E0ED33F907B9F708950F931F9342
:1004C000CF93DF93EB011091710088818E7F888339
:1004D0000AE080E0ABDF24E0969587952A95E1F766
:1004E000212F30E02817390711F40F5F01C000E019
:1004F000182F0A3070F320917100281719F0288105
:100500002160288310937100DF91CF911F910F918B
:100510000895282F88E0289FF0011124DF01A456B8
:10052000BF4F14969C91149711968C911197981720
:1005300041F114969C91149715968C9115979813E8
:1005400007C016968C9116978F5F16968C9302C0F3
:1005500016961C92E456FF4F8481858386818A30EB
:1005600011F5808181838481808381E0828313827D
:10057000168281E090E002C0880F991F2A95E2F769
:10058000089514968C91811108C081E090E002C01A
:10059000880F991F2A95E2F702C080E090E0E456A8
:1005A000FF4F1682089580E090E00895BA9AC29AAB
:1005B000B89AC09A08950895CF93DF9300D000D0E1
:1005C000CDB7DEB720DEB2DDF1DF6BDF2FEF8FEFCF
:1005D0009CE2215080409040E1F700C0000088E498
:1005E0008093740081E4809375008CE4809376009E
:1005F000809377008FE4809378001092790085E0F3
:100600008093690010926A009DDDEFEFFFEF2CE20E
:10061000E150F0402040E1F700C000008FEF9FEF75
:10062000ECE281509040E040E1F700C000000ADEBB
:10063000FFEF2FEF8CE2F15020408040E1F700C047
:100640000000B12C80916700882339F0C098809118
:100650008800109288001092670019821A821B820B
:100660001C8200E010E0780183E0EE0CFF1C8A950C
:10067000E1F7F701E456FF4F6F018381882321F0F2
:10068000802F47DFF6011382F701E456FF4F828186
:10069000813009F041C08091690081113DC0809195
:1006A0007400882329F061E670E084E790E0D9D1F6
:1006B0004AE050E0BE016F5F7F4FC8010896DCD171
:1006C000BE016F5F7F4F84E790E0CBD163E670E0BF
:1006D00084E790E0C6D1C70184569F4F7C01FC019E
:1006E00080814AE050E0BE016F5F7F4F90E0C4D14F
:1006F000BE016F5F7F4F84E790E0B3D1E4E7F0E0A5
:1007000001900020E9F73197E457F040E093690049
:10071000F7011282BB24B3940F5F1F4F0031110504
:1007200009F0A1CFBB2009F48DCF29DD882309F47E
:1007300089CF08DD809169008111FCCF2DDD81CF4B
:10074000991B79E004C0991F961708F0961B881F23
:100750007A95C9F7809508950CD0E6C0DED040F0B8
:10076000D5D030F021F45F3F19F0C7C0511110C14E
:10077000CAC0EBD098F39923C9F35523B1F3951B65
:10078000550BBB27AA2762177307840738F09F5FB2
:100790005F4F220F331F441FAA1FA9F333D00E2E21
:1007A0003AF0E0E830D091505040E695001CCAF78E
:1007B00029D0FE2F27D0660F771F881FBB1F261753
:1007C00037074807AB07B0E809F0BB0B802DBF0126
:1007D000FF2793585F4F2AF09E3F510568F08DC068
:1007E000D7C05F3FECF3983EDCF38695779567952D
:1007F000B795F7959F5FC9F7880F911D96958795D7
:1008000097F90895E1E0660F771F881FBB1F6217F5
:1008100073078407BA0720F0621B730B840BBA0BB3
:10082000EE1F88F7E095089598D088F09F5790F0D4
:10083000B92F9927B751A0F0D1F0660F771F881F05
:10084000991F1AF0BA95C9F712C0B13081F09FD044
:10085000B1E008959CC0672F782F8827B85F39F0E2
:10086000B93FCCF3869577956795B395D9F73EF464
:1008700090958095709561957F4F8F4F9F4F08950C
:10088000E89409C097FB3EF490958095709561952A
:100890007F4F8F4F9F4F9923A9F0F92F96E9BB27E0
:1008A0009395F695879577956795B795F111F8CF5C
:1008B000FAF4BB0F11F460FF1BC06F5F7F4F8F4FC7
:1008C0009F4F16C0882311F096E911C0772321F0BD
:1008D0009EE8872F762F05C0662371F096E8862F55
:1008E00070E060E02AF09A95660F771F881FDAF7AC
:1008F000880F9695879597F9089597F99F6780E8EF
:1009000070E060E008959FEF80EC089500240A9461
:100910001616170618060906089500240A941216DA
:100920001306140605060895092E0394000C11F40D
:10093000882352F0BB0F40F4BF2B11F460FF04C0BA
:100940006F5F7F4F8F4F9F4F089557FD9058440F13
:10095000551F59F05F3F71F04795880F97FB991F1E
:1009600061F09F3F79F087950895121613061406DB
:10097000551FF2CF4695F1DF08C016161706180668
:10098000991FF1CF86957105610508940895E89443
:10099000BB2766277727CB0197F908950BD0C4CFE3
:1009A000B5DF28F0BADF18F0952309F0A6CFABCF5A
:1009B0001124EECFCADFA0F3959FD1F3950F50E03D
:1009C000551F629FF001729FBB27F00DB11D639F01
:1009D000AA27F00DB11DAA1F649F6627B00DA11DA7
:1009E000661F829F2227B00DA11D621F739FB00D4D
:1009F000A11D621F839FA00D611D221F749F3327BD
:100A0000A00D611D231F849F600D211D822F762F55
:100A10006A2F11249F5750408AF0E1F088234AF052
:100A2000EE0FFF1FBB1F661F771F881F915050409E
:100A3000A9F79E3F510570F060CFAACF5F3FECF35E
:100A4000983EDCF3869577956795B795F795E7958A
:100A50009F5FC1F7FE2B880F911D9695879597F99B
:100A60000895FB01DC010D900020E9F7119701903A
:100A70000D920020E1F70895FB019F01E8944230B8
:100A8000BCF04532ACF44A3029F497FB1EF4909543
:100A900081959F4F642F77271ED0805D8A330CF09D
:100AA000895D8193CB010097A9F716F45DE251931C
:100AB0001082C90100C0DC01FC01672F719177230E
:100AC000E1F7329704C07C916D9370836291AE1709
:100AD000BF07C8F30895AA1BBB1B51E107C0AA1F9B
:100AE000BB1FA617B70710F0A61BB70B881F991FCF
:100AF0005A95A9F780959095BC01CD010895F89479
:020B0000FFCF25
:060B0200013B003A000077
:00000001FF
