:1000000012C02CC02BC02AC029C028C07EC226C066
:1000100025C024C0BEC123C021C04FC01FC01EC008
:100020001DC01CC01BC011241FBECFE5D4E0DEBF25
:10003000CDBF10E0A0E6B0E0EAE5F4E102C0059033
:100040000D92A636B107D9F710E0A6E6B0E001C0E0
:100050001D92A33BB107E1F74ED6FDC9D1CF1F9248
:100060000F920FB60F9211248F939F93EF93FF93EC
:10007000809166008D7F809366009CB1E09168005E
:10008000F0E0E457FF4F9083809168008F5F80938A
:100090006800911109C08091680080936700809189
:1000A0006600826080936600FF91EF919F918F912F
:1000B0000F900FBE0F901F9018951F920F920FB6C2
:1000C0000F9211248F939F93EF93FF9390916A0067
:1000D00080916900981788F4809166008E7F8093E4
:1000E0006600E0916A0081E08E0F80936A00F0E084
:1000F000E858FF4F80818CB916C090916A008091BA
:100100006900981307C080916A008F5F80936A002E
:100110001CB809C010926A008091660081608093CB
:10012000660010927800FF91EF919F918F910F9050
:100130000FBE0F901F90189510BC8FE589B98AB13A
:10014000886D8AB986E880BD7894089580916900A9
:100150008823A9F080916A00811111C08091660006
:100160008E7F80936600E0916A00F0E0E858FF4FD0
:1001700080818CB980916A008F5F80936A000895B6
:100180000F931F93A82FB0E000916B0010916C00AB
:1001900020916D0030916E00AA0FBB1F613029F5D0
:1001A000AD014F5F5F4FE1E0F0E0CF0102C0880F8B
:1001B000991F4A95E2F7AC0140955095662757FD87
:1001C0006095762FCF0102C0880F991FAA95E2F79C
:1001D000AA2797FDA095BA2F802B912BA22BB32B8A
:1001E000482359236A237B2322C0E1E0F0E0AF01DA
:1001F0000A2E02C0440F551F0A94E2F7409550950D
:10020000662757FD6095762F402351236223732381
:100210001196CF0102C0880F991FAA95E2F7AA276D
:1002200097FDA095BA2F482B592B6A2B7B2B409317
:100230006B0050936C0060936D0070936E00609142
:100240006B0070916C0080916D0090916E001F9119
:100250000F914EC00F931F93482F50E0440F551F2E
:10026000E1E0F0E0BF01042E02C0660F771F0A94A0
:10027000E2F760957095882777FD8095982F00911B
:100280006B0010916C0020916D0030916E00602326
:100290007123822393234F5F5F4F8F0102C0000FB2
:1002A000111F4A95E2F700951095222717FD20951A
:1002B000322F602371238223932360936B0070930A
:1002C0006C0080936D0090936E001F910F9110C091
:1002D00010926B0010926C0010926D0010926E00E4
:1002E00060E070E0CB0104C084B3876084BB0895F4
:1002F000CF92DF92EF92FF922FE130E0E1E0F0E069
:10030000AF01022E02C0440F551F0A94E2F76A01A2
:10031000EE24D7FCE094FE2CC622D722E822F92254
:10032000CD28CE28CF2811F0AA9A01C0AA98A89A61
:10033000A8982150310920F7A99AA89AA898A998B5
:10034000FF90EF90DF90CF9008958CE287BBC29A28
:1003500081E58DB91092A1001092A0001092A20028
:100360001092A3001092A4001092A5001092A60073
:10037000789408956F9AC29886E08FB98AE0809346
:100380006F008091A0008093700081E080937100E5
:1003900008951F920F920FB60F9211242F933F933F
:1003A0004F936F937F938F939F93EF93FF938091DE
:1003B000710023E0622FA4D5482F80917100A0D551
:1003C00091112BC0C29A20917300309174008FB1AB
:1003D000282B3093740020937300442319F0EFEF1F
:1003E000E40F01C0E0E0209173003091740064E0FC
:1003F000369527956A95E1F787E0E89FF00111248B
:10040000E056FF4F248381E08383C29842FF02C0FD
:1004100087E001C086E08FB91FC080917100622F14
:100420006FD5913031F44295440F440F407C4FB961
:1004300013C08FB190E0982F882790937400809319
:100440007300809173009091740088279F7090933F
:100450007400809373001FB8809171008F5F809348
:10046000710080917100833011F410927100FF913E
:10047000EF919F918F917F916F914F913F912F912C
:100480000F900FBE0F901F901895809172000895E5
:100490001092720080917300909174000895C29838
:1004A0006F9882FD02C096E001C097E09FB9779BEC
:1004B000FECF8295880F880F807C8FB9779BFECF07
:1004C0008FB190E0982F88279093740080937300E9
:1004D000809173009091740088279F7090937400AE
:1004E000809373001FB8779BFECF8091730090912B
:1004F00074002FB1822B9093740080937300C29A82
:10050000809173009091740008951F920F920FB61E
:100510000F9211248F938EB58C7F8EBD81E08093D6
:1005200076008F910F900FBE0F901F901895CF926D
:10053000DF92EF92FF92CF93582F9EB59C7F9EBD86
:10054000F89480917600882319F02AB53BB502C053
:100550002CB53DB578948091AD009091AE00A091FE
:10056000AF00B091B0000097A105B10509F434C106
:100570004091B100642F6D7F653019F0423009F071
:100580002BC1552309F428C1821B930BA109B10982
:100590008093AD009093AE00A093AF00B093B000F5
:1005A000892B8A2B8B2B09F017C1109278004530CC
:1005B00039F1473021F0423009F00EC1D0C08091AE
:1005C000A4008093A80081E08093B1002091A00056
:1005D0009091A7008091B200291710F4816001C0AA
:1005E0008E7F8093B20020E030E040E251E46091E1
:1005F000A9007091AA008091AB009091AC00E2C07C
:1006000080E028DE80917700815080937700C09150
:10061000B200C1FFA0C08091A400882321F0809186
:10062000A4008F3F61F58091A400882311F0CE7F54
:1006300001C0C160C093B2008091A4008093A80063
:100640008091B20082608093B2008AEF9FEFA0E0B9
:10065000B0E08093AD009093AE00A093AF00B09354
:10066000B00080E090E4ACE1B6E48093A900909300
:10067000AA00A093AB00B093AC0084E06DC0609181
:10068000A40070E08091A800681B7109882777FD9D
:100690008095982F40D59B01AC0160E07AEF8FE701
:1006A00097E4A3D46B017C0120E030E0A90199D448
:1006B00087FF04C0F7FAF094F7F8F094C092A9000D
:1006C000D092AA00E092AB00F092AC008091A4001E
:1006D0008093A8001092A7008C2F8E7F8093B20089
:1006E0008091A4008B30C0F020E030E040E251E483
:1006F0006091A9007091AA008091AB009091AC002C
:10070000BAD5DBD46093AD007093AE008093AF0098
:100710009093B00081E019C06091A40070E080E087
:1007200090E0F9D42091A9003091AA004091AB004B
:100730005091AC00A0D5C1D46093AD007093AE00D1
:100740008093AF009093B00084E08093B100CC7FA1
:10075000C093B20041C086E08093B1003DC080E00C
:1007600079DD809177008150809377006091A400BB
:100770006093A80084E08093B1004091A000309184
:10078000A7002091B200832F90E070E0431740F45F
:1007900021602093B2009C01261B370BB90105C0D4
:1007A0002E7F2093B200681B790B882777FD8095F8
:1007B000982FB1D42091A9003091AA004091AB00AC
:1007C0005091AC0058D579D46093AD007093AE00D1
:1007D0008093AF009093B0008091AD009091AE00F7
:1007E000A091AF00B091B0008F3F3FEF9307A105FC
:1007F000B10528F40097A105B10551F002C08FEFB3
:100800009FEF9BBD8ABD1DBC1CBC8EB583608EBD99
:10081000CF91FF90EF90DF90CF9008952091B1009D
:100820002330C9F130F4213061F0223009F4D0C016
:100830000895253009F4CCC020F0263009F487C093
:10084000089580917700843008F0E1C08091AD0078
:100850009091AE00A091AF00B091B000892B8A2B8F
:100860008B2B09F4D4C0213011F482E001C085E063
:100870008093B1008091A4008093A80080E057DEAF
:100880006091B200617080E07BDC809177008F5FC7
:100890008093770008958091B2004091A80080FF76
:1008A0000AC02091A400842F90E0089630E08217BF
:1008B000930774F429C0811127C0642F70E08091E0
:1008C000A4009B012850310990E082179307ACF0F7
:1008D0008091A4008093A80087E08093B10080E01D
:1008E00090E0A1EEB0E08093AD009093AE00A093B5
:1008F000AF00B093B00080E089C06A507109809168
:10090000A700681B710908C08091A70066EF7FEF00
:10091000641B7109680F711D882777FD8095982FDA
:10092000FAD32091A9003091AA004091AB005091D8
:10093000AC00A1D4C2D36093AD007093AE0080939D
:10094000AF009093B00084E08093B100089580914F
:10095000A4002091A700821303C01092B100089553
:100960006091A4006093A80084E08093B10040915E
:10097000A4003091B200822F90E070E0421740F462
:1009800031603093B2009C01261B370BB90105C0C2
:100990003E7F3093B200681B790B882777FD8095E6
:1009A000982FB9D32091A9003091AA004091AB00B3
:1009B0005091AC0060D49B01AC01AFD27ED3609368
:1009C000AD007093AE008093AF009093B000089597
:1009D0008091A800882331F09091A400992331F0F0
:1009E0008F3FA9F08091A4008F3F89F48EB58C7F52
:1009F0008EBD8CB59DB5A0E0B0E08093AD00909326
:100A0000AE00A093AF00B093B00081E090CD089508
:100A1000CF93DF93462F282F30E097E0899FF00196
:100A20001124E056FF4F8481681709F47BC054817C
:100A30008CE0829FF001839FF00D1124E955FF4F58
:100A40005183608380E090E0A8ECB2E482839383DA
:100A5000A483B5838385651710F48E7F01C0816000
:100A60008387642F70E087E0829FF001839FF00D01
:100A70001124E056FF4F8481DB01A81BB109AB3084
:100A8000B1051CF08481841788F087E0829FF00113
:100A9000839FF00D1124E056FF4F848190E0861B68
:100AA000970B0B97DCF084814817C0F48CE0829F91
:100AB000E001839FD00D1124C955DF4F20E030E0C5
:100AC00040E251E46A817B818C819D81D4D3F5D24F
:100AD0006E837F838887998781E023C087E0829F28
:100AE000F001839FF00D1124E056FF4F84819CE0BC
:100AF000929FE001939FD00D1124C955DF4F681BD1
:100B00007109882777FD8095982F05D32A813B812D
:100B10004C815D81B0D3D1D26E837F8388879987E2
:100B200084E08A87DF91CF9108950F931F93CF932D
:100B3000DF93EB011091750088818E7F88830AE036
:100B400080E0ADDC24E0969587952A95E1F7212F8A
:100B500030E02817390711F40F5F01C000E0182FAB
:100B60000A3070F320917500281719F02881216050
:100B7000288310937500DF91CF911F910F910895F5
:100B8000CF93DF931F92CDB7DEB71982BE016F5F9F
:100B90007F4F80E0CADF9091B2008B3728F08456F7
:100BA0008093A7009E7F01C091609093B2008091D6
:100BB000B20082608093B2001092A8008AEF9FEF8B
:100BC000A0E0B0E08093AD009093AE00A093AF00A2
:100BD000B093B00080E090E4ACE1B6E48093A9006B
:100BE0009093AA00A093AB00B093AC0084E08093F4
:100BF000B100109277001EBC80E098E49BBD8ABDD6
:100C000089B7806189BF78940F90DF91CF91089563
:100C1000482F282F30E08CE0489FF0011124E9553F
:100C2000FF4F8285882319F08385837F838787E040
:100C3000829FF001839FF00D1124E056FF4F9481B5
:100C400081819817C1F194818581981304C08681B0
:100C50008F5F868301C0168287E0829FF001839FA9
:100C6000F00D1124E056FF4F8481858386818A3000
:100C7000C9F5808181838481808381E082831382AE
:100C8000168281E090E002C0880F991F4A95E2F732
:100C90004CE0429FF001439FF00D1124E955FF4FB6
:100CA0002285211121C0238522FF02C0286001C0B6
:100CB0002460238708958481811108C081E090E039
:100CC00002C0880F991F4A95E2F702C080E090E0C9
:100CD00047E0429FF001439FF00D1124E056FF4F83
:100CE0001682089580E090E00895BA9AC29AB89A60
:100CF000C09A08950895CF93DF9300D000D01F923B
:100D0000CDB7DEB722DB18DAF0DFEEDA39DF2FEF0E
:100D10008FEF9CE2215080409040E1F700C000003E
:100D200088E48093780081E4809379008CE4809358
:100D30007A0080937B008FE480937C0010927D008A
:100D400085E08093690010926A0000DA2FEF8FEF40
:100D50009CE2215080409040E1F700C000002FEF5E
:100D60008FEF9CE2215080409040E1F700C00000EE
:100D700001DB2FEF8FEF9CE2215080409040E1F7A4
:100D800000C0000010E0C12CD12C8091660081FFD2
:100D900055C0C0988FEF9FE80197F1F700C00000A1
:100DA00080918C008D3619F08337C9F13EC00DE873
:100DB00010E001151105C1F16AE370E0C801E6D247
:100DC0007C01009789F1AC01401B510BB801CE01A9
:100DD0000196E7D21D82CE010196B0D2B82E6BE308
:100DE00070E0C701D3D28C01B7016F5F7F4F0097CE
:100DF00031F44091670050E044575F4F01C0AC01AF
:100E00004E195F0941505109CE010196CAD21D8287
:100E1000CE01019693D2682F8B2DFADDCACF809137
:100E20008D0011E0813309F010E010928C001092D7
:100E30006800809166008D7F8093660091E0C916FE
:100E4000D10449F480917600882321F081E06FDBA2
:100E500010927600E3DC19821A821B821C82809138
:100E6000A300882331F080E0D3DEC82AD92A10926B
:100E7000A3008091A200813009F087CF112309F4EB
:100E800084CF80917800882329F061E670E088E7BC
:100E900090E071D24AE050E0BE016F5F7F4F80E08A
:100EA00090E08ED2BE016F5F7F4F88E790E063D203
:100EB00063E670E088E790E05ED28091A0004AE0AF
:100EC00050E0BE016F5F7F4F90E07AD2BE016F5F4E
:100ED0007F4F88E790E04FD2E8E7F0E001900020F4
:100EE000E9F73197E857F040E09369001092A200CB
:100EF0002DD98091660080FFFCCF1092780045CFFD
:100F0000991B79E004C0991F961708F0961B881F5B
:100F10007A95C9F7809508955058BB27AA270ED017
:100F200070C161D130F066D120F031F49F3F11F4EF
:100F30001EF456C10EF4E095E7FB4CC1E92F72D1C7
:100F400080F3BA17620773078407950718F071F4E6
:100F50009EF58AC10EF4E0950B2EBA2FA02D0B0141
:100F6000B90190010C01CA01A0011124FF27591BEE
:100F700099F0593F50F4503E68F11A16F040A22FF4
:100F8000232F342F4427585FF3CF46953795279565
:100F9000A795F0405395C9F77EF41F16BA0B620B64
:100FA000730B840BBAF09150A1F0FF0FBB1F661FAB
:100FB000771F881FC2F70EC0BA0F621F731F841FEE
:100FC00048F4879577956795B795F7959E3F08F014
:100FD000B3CF9395880F08F09927EE0F97958795D3
:100FE0000895D4D008F481E008950CD00AC102D14C
:100FF00040F0F9D030F021F45F3F19F0EBC051110F
:1010000034C1EEC00FD198F39923C9F35523B1F33E
:10101000951B550BBB27AA2762177307840738F067
:101020009F5F5F4F220F331F441FAA1FA9F333D0C6
:101030000E2E3AF0E0E830D091505040E695001C7A
:10104000CAF729D0FE2F27D0660F771F881FBB1F36
:10105000261737074807AB07B0E809F0BB0B802D10
:10106000BF01FF2793585F4F2AF09E3F510568F05C
:10107000B1C0FBC05F3FECF3983EDCF386957795FB
:101080006795B795F7959F5FC9F7880F911D96955E
:10109000879597F90895E1E0660F771F881FBB1FBA
:1010A000621773078407BA0720F0621B730B840B67
:1010B000BA0BEE1F88F7E0950895BCD088F09F57D3
:1010C00090F0B92F9927B751A0F0D1F0660F771F94
:1010D000881F991F1AF0BA95C9F712C0B13081F074
:1010E000C3D0B1E00895C0C0672F782F8827B85FBC
:1010F00039F0B93FCCF3869577956795B395D9F7D5
:101100003EF490958095709561957F4F8F4F9F4FDE
:101110000895E89409C097FB3EF4909580957095EA
:1011200061957F4F8F4F9F4F9923A9F0F92F96E933
:10113000BB279395F695879577956795B795F111A8
:10114000F8CFFAF4BB0F11F460FF1BC06F5F7F4F45
:101150008F4F9F4F16C0882311F096E911C0772357
:1011600021F09EE8872F762F05C0662371F096E860
:10117000862F70E060E02AF09A95660F771F881F2F
:10118000DAF7880F9695879597F90895990F0008D3
:10119000550FAA0BE0E8FEEF16161706E807F90749
:1011A000C0F012161306E407F50798F0621B730BE4
:1011B000840B950B39F40A2661F0232B242B252B65
:1011C00021F408950A2609F4A140A6958FEF811D08
:1011D000811D089597F99F6780E870E060E00895A9
:1011E0009FEF80EC089500240A941616170618063F
:1011F0000906089500240A9412161306140605061B
:101200000895092E0394000C11F4882352F0BB0FAB
:1012100040F4BF2B11F460FF04C06F5F7F4F8F4F0E
:101220009F4F089557FD9058440F551F59F05F3F49
:1012300071F04795880F97FB991F61F09F3F79F0F8
:1012400087950895121613061406551FF2CF46957A
:10125000F1DF08C0161617061806991FF1CF8695FC
:101260007105610508940895E894BB2766277727E0
:10127000CB0197F908950BD0C4CFB5DF28F0BADFC2
:1012800018F0952309F0A6CFABCF1124EECFCADF1B
:10129000A0F3959FD1F3950F50E0551F629FF00189
:1012A000729FBB27F00DB11D639FAA27F00DB11DE2
:1012B000AA1F649F6627B00DA11D661F829F22276B
:1012C000B00DA11D621F739FB00DA11D621F839FF2
:1012D000A00D611D221F749F3327A00D611D231FC8
:1012E000849F600D211D822F762F6A2F11249F5716
:1012F00050408AF0E1F088234AF0EE0FFF1FBB1F39
:10130000661F771F881F91505040A9F79E3F5105D7
:1013100070F060CFAACF5F3FECF3983EDCF3869588
:1013200077956795B795F795E7959F5FC1F7FE2B82
:10133000880F911D9695879597F90895FC01882748
:101340009927E89421912032E9F3293010F02E30CA
:10135000C8F32B3239F02D3231F4689403C04FD0EA
:10136000820F911D219120532A30C8F31EF49095CD
:1013700081959F4F0895FB01DC010D900020E9F756
:10138000119701900D920020E1F70895FC018191E1
:10139000861721F08823D9F7992708953197CF012F
:1013A0000895FB01DC014150504048F001900D923E
:1013B0000020C9F701C01D9241505040E0F7089548
:1013C000FB019F01E8944230BCF04532ACF44A3056
:1013D00029F497FB1EF4909581959F4F642F7727F2
:1013E00026D0805D8A330CF0895D8193CB01009714
:1013F000A9F716F45DE251931082C90108C07AE0A2
:10140000979F902D879F802D910D11240895DC01C9
:10141000FC01672F71917723E1F7329704C07C912B
:101420006D9370836291AE17BF07C8F30895AA1B2E
:10143000BB1B51E107C0AA1FBB1FA617B70710F0BF
:10144000A61BB70B881F991F5A95A9F780959095F1
:0A145000BC01CD010895F894FFCF10
:06145A00013B003A000016
:00000001FF
