:1000000012C02CC02BC02AC029C028C0FEC226C0E6
:1000100025C024C0E4C123C021C051C01FC01EC0E0
:100020001DC01CC01BC011241FBECFE5D4E0DEBF25
:10003000CDBF10E0A0E6B0E0E2E0F9E102C005903B
:100040000D92A636B107D9F710E0A6E6B0E001C0E0
:100050001D92AE3CB107E1F793D851CCD1CF1F929E
:100060000F920FB60F9211248F939F93EF93FF93EC
:100070008CB1882321F090EE980F9E35B8F49091C2
:100080006700911113C0E0916800F0E0E457FF4F62
:100090008083909168009F5F90936800811106C0F3
:1000A000809168008093670010926800FF91EF9143
:1000B0009F918F910F900FBE0F901F9018951F92D8
:1000C0000F920FB60F9211248F939F93EF93FF938C
:1000D00090916A0080916900981760F4E0916A003D
:1000E00081E08E0F80936A00F0E0E858FF4F808136
:1000F0008CB913C090916A0080916900981307C071
:1001000080916A008F5F80936A001CB806C01092CD
:100110006A001092690010927800FF91EF919F9110
:100120008F910F900FBE0F901F90189510BC8FE508
:1001300089B98AB180698AB986E880BD8C9A8B9822
:1001400078940895E8E7F0E001900020E9F731970E
:10015000E857F040E093690080916900882371F0CE
:1001600080916A0081110AC0E0916A00F0E0E858CD
:10017000FF4F80818CB981E080936A00089580B33D
:10018000887080BB882331F0949A8AB188648AB9D8
:1001900081E0089580E008958AB1877B8AB9899AC1
:1001A000949808950F931F93A82FB0E000916B00CF
:1001B00010916C0020916D0030916E00AA0FBB1F52
:1001C000613029F5AD014F5F5F4FE1E0F0E0CF0115
:1001D00002C0880F991F4A95E2F7AC0140955095EF
:1001E000662757FD6095762FCF0102C0880F991FB3
:1001F000AA95E2F7AA2797FDA095BA2F802B912BFD
:10020000A22BB32B482359236A237B2322C0E1E08E
:10021000F0E0AF010A2E02C0440F551F0A94E2F726
:1002200040955095662757FD6095762F40235123C2
:10023000622373231196CF0102C0880F991FAA95DC
:10024000E2F7AA2797FDA095BA2F482B592B6A2BC6
:100250007B2B40936B0050936C0060936D00709308
:100260006E0060916B0070916C0080916D009091B8
:100270006E001F910F914EC00F931F93482F50E0B7
:10028000440F551FE1E0F0E0BF01042E02C0660FED
:10029000771F0A94E2F760957095882777FD80951F
:1002A000982F00916B0010916C0020916D0030919F
:1002B0006E0060237123822393234F5F5F4F8F0172
:1002C00002C0000F111F4A95E2F7009510952227F2
:1002D00017FD2095322F602371238223932360938F
:1002E0006B0070936C0080936D0090936E001F9173
:1002F0000F9110C010926B0010926C0010926D0064
:1003000010926E0060E070E0CB0104C084B387609F
:1003100084BB0895CF92DF92EF92FF922FE130E0FD
:10032000E1E0F0E0AF01022E02C0440F551F0A9435
:10033000E2F76A01EE24D7FCE094FE2CC622D72215
:10034000E822F922CD28CE28CF2811F0AA9A01C0A0
:10035000AA98A89AA8982150310920F7A99AA89A92
:10036000A898A998FF90EF90DF90CF9008958EE223
:1003700087BB88B3866088BB81E58DB91092A100E8
:100380001092A0001092A2001092A3001092A4005C
:100390001092A5001092A6001092A7001092A9003A
:1003A0001092A8001092AA001092AB001092AC001C
:1003B0001092AD001092AE001092AF0078940895A4
:1003C0006F9AC29886E08FB98AE080936F0080911F
:1003D000A0008093700081E08093710008951F92C7
:1003E0000F920FB60F921124AF92BF92CF92DF926D
:1003F000EF92FF921F932F933F934F935F936F93CF
:100400007F938F939F93AF93BF93CF93DF93EF939C
:10041000FF938091710023E0622FC6D7182F80913F
:100420007100C2D791116DC0C29A809173009091F2
:1004300074002FB1822B909374008093730011236A
:1004400019F08FEF810F01C081E06091730070910E
:10045000740034E0769567953A95E1F7C82FD0E0BF
:100460009FE0899F50011124F501E055FF4F5F0186
:100470008585681B710980E090E09FD86B017C0145
:10048000F501648570E080E090E099D89B01AC01B3
:1004900060E070E08FE793E4FCD79B01AC01C701FB
:1004A000B6013DD95ED843E0CC0FDD1F4A95E1F798
:1004B000FE01E056FF4F64838091730090917400B9
:1004C00054E0969587955A95E1F7878381E0838379
:1004D0008781843120F48481873E08F01482C056DD
:1004E000DF4F8F81873E28F08C81843110F48FEFAD
:1004F0008C83C29812FF02C087E001C086E08FB9EA
:100500001FC080917100622F4FD7913031F4129546
:10051000110F110F107C1FB913C08FB190E0982FED
:10052000882790937400809373008091730090915A
:10053000740088279F7090937400809373001FB895
:10054000809171008F5F809371008091710086307F
:1005500011F410927100FF91EF91DF91CF91BF9153
:10056000AF919F918F917F916F915F914F913F914B
:100570002F911F91FF90EF90DF90CF90BF90AF90A1
:100580000F900FBE0F901F901895809172000895E4
:100590001092720080917300909174000895C29837
:1005A0006F9882FD02C096E001C097E09FB9779BEB
:1005B000FECF8295880F880F807C8FB9779BFECF06
:1005C0008FB190E0982F88279093740080937300E8
:1005D000809173009091740088279F7090937400AD
:1005E000809373001FB8779BFECF8091730090912A
:1005F00074002FB1822B9093740080937300C29A81
:10060000809173009091740008951F920F920FB61D
:100610000F9211248F938EB58C7F8EBD81E08093D5
:1006200076008F910F900FBE0F901F9018952F920C
:100630003F924F925F926F927F928F929F92AF9272
:10064000BF92CF92DF92EF92FF920F931F93CF93BF
:10065000DF9300D000D000D0CDB7DEB7282E8EB506
:100660008C7F8EBDF89480917600882319F08AB52E
:100670009BB502C08CB59DB5789450EBC52E50E06B
:10068000D52E0BEB10E021EB30E03E832D836AEB9F
:10069000E62E60E0F62E812C912C2C01612C712C21
:1006A00049825A826B827C8274E0372E882DAD811C
:1006B000BE8115964D915D916D917C911897411574
:1006C00051056105710509F470C1F7019081292F69
:1006D0002D7F253019F0923009F067C1821509F499
:1006E00064C149805A806B807C8044195509660931
:1006F0007709AD81BE8115964D935D936D937C9383
:100700001897452B462B472B09F04FC110927800C4
:10071000F70190819530D9F1973021F0923009F0AE
:1007200044C1E7C0F40143E0EE0FFF1F4A95E1F733
:10073000E056FF4F8481AD81BE818C934424439465
:10074000D7014C929081D6018C91981788F4F801CA
:1007500080818160808320E030E040E251E4AD811F
:10076000BE8111966D917D918D919C911497F3C0EE
:10077000D8018C918E7F8C9320E030E040E251E4F0
:10078000ED81FE81618172818381948104C174DD78
:1007900080917700815080937700F801808181FFFC
:1007A000A4C0540133E0AA0CBB1C3A95E1F7F50153
:1007B000E056FF4F9481992319F094819F3FA1F552
:1007C000F501E056FF4F9481992321F08E7FD801E7
:1007D0008C9303C08160F8018083F501E056FF4FE0
:1007E0008481AD81BE818C93F80180818260808399
:1007F00096E9492E55245A94612C712C15964D92E8
:100800005D926D927C921897412C20E4522E2CE13F
:10081000622E26E4722E11964D925D926D927C921C
:100820001497F7013082C1C0848190E0AD81BE8110
:100830002C91821B9109BC01882777FD8095982F08
:10084000BED69B01AC0160E076E98FE797E421D644
:100850002B013C0120E030E0A90117D687FD07C03D
:10086000ED81FE8141825282638274820CC077FAEC
:10087000709477F87094AD81BE8111964D925D921F
:100880006D927C921497F501E056FF4F8481AD8103
:10089000BE818C9344244A94D6014C92D8018C9109
:1008A00081608C938481EFEFF0E0E81BF109BF01D8
:1008B000882777FD8095982F82D6AD81BE811196CD
:1008C0002D913D914D915C91149729D74AD6ED8198
:1008D000FE816583768387839087D7013C92F801F8
:1008E00080818D7F8460808360C0E6E0D701EC93D7
:1008F0005CC0C2DC80917700815080937700F40166
:1009000083E0EE0FFF1F8A95E1F7E056FF4F8481E9
:10091000AD81BE818C93D7013C929081F60180819C
:10092000D801981708F58C9181608C93808190E0B4
:10093000ED81FE812081821B9109BC01882777FD12
:100940008095982F3CD6AD81BE8111962D913D9119
:100950004D915C911497E3D604D6ED81FE816583B9
:1009600076838783908721C08C918E7F8C93ED81D5
:10097000FE81808190E0D6012C91821B9109BC01FF
:10098000882777FD8095982F1AD6ED81FE812181E9
:10099000328143815481C3D6E4D5AD81BE811596A1
:1009A0006D937D938D939C931897BFEF8B1A9B0A41
:1009B000EFE0CE0ED11C015F1F4F2D813E81215FE4
:1009C0003F4F3E832D833FE0E30EF11C42E084164F
:1009D000910409F06BCE8091B6009091B700A09180
:1009E000B800B091B9008F3F5FEF9507A105B10541
:1009F00030F40097A105B10531F09C0102C02FEF42
:100A00003FEFE1E003C02FEF3FEFE0E08091C50052
:100A10009091C600A091C700B091C800A90160E004
:100A200070E084179507A607B70728F40097A1057B
:100A3000B10549F09C013BBD2ABD1DBC1CBC8EB557
:100A400083608EBD02C0E111F6CF26960FB6F894F2
:100A5000DEBF0FBECDBFDF91CF911F910F91FF90F1
:100A6000EF90DF90CF90BF90AF909F908F907F904E
:100A70006F905F904F903F902F9008952F923F92EC
:100A80004F925F926F927F928F929F92AF92BF929E
:100A9000CF92DF92EF92FF920F931F93CF93DF934A
:100AA0002AEBC22E20E0D22E30EB832E30E0932EA4
:100AB000C1EBD0E04EEBE42E40E0F42E0BEB10E067
:100AC000A12CB12C54E0252E412C512C6AEC662E21
:100AD00068E0762E3A2CF60120812330B9F130F40B
:100AE000213061F0223009F454C177C1253009F476
:100AF00050C120F0263009F48FC06FC1809177007B
:100B0000843008F06AC18D819E81AF81B885892BC0
:100B10008A2B8B2B09F461C12F5FF6012083F5012D
:100B200093E0EE0FFF1F9A95E1F7E056FF4F8481A7
:100B30008883832D7CDDF80160816170832D32DB39
:100B4000809177008F5F8093770047C1F8018081A3
:100B500080FF12C0F50183E0EE0FFF1F8A95E1F7D9
:100B6000E056FF4F4481288130E0285F3F4F50E03E
:100B700024173507ACF433C0811131C0288130E02F
:100B8000F501B3E0EE0FFF1FBA95E1F7E056FF4F16
:100B90008481A9014850510990E0841795079CF081
:100BA000F501A3E0EE0FFF1FAA95E1F7E056FF4F16
:100BB0008481888327E0F60120834D825E826F82E4
:100BC0007886832D09C12A503109F4018081281BC0
:100BD0003109B901882777FD8095982F0FC0F4015E
:100BE0002081888146EF5FEF481B5109CA01820FBF
:100BF000911DBC01882777FD8095982FE0D429812D
:100C00003A814B815C818BD5ACD46D837E838F839D
:100C10009887F6012082E1C0F8018081D501F3E0D8
:100C2000AA0FBB1FFA95E1F782FF47C09D0120562E
:100C30003F4FF90184818F3F21F0F70180818A3095
:100C400040F1F7011082A056BF4F17968C9117976D
:100C500032978083F80180818B7F8860808314962F
:100C60008C918883F6012082F80180818E7F8083B9
:100C7000688170E080E090E0A2D429813A814B81C4
:100C80005C814DD56ED46D837E838F839887F4010C
:100C90004CC0F90184818883F6012082F7018081AC
:100CA0008F5F8083F80180818160808388812FEF4E
:100CB00030E0281B3109C90158C083FF2CC09D01B9
:100CC00020563F4FF9018481882321F0F70180816C
:100CD0008A3078F0F6011082F7011082A056BF4FDB
:100CE00017968C9131978083F8018081877F80836C
:100CF00074C0F90184818883F6012082F701808124
:100D00008F5F8083F80180818E7F8083688170E0AF
:100D100080E090E02FC0A056BF4F14969C9114978E
:100D2000F4018081981303C0F601108256C0149616
:100D30008C9114978883F601208214962C91F401EB
:100D40009081F8018081291738F481608083F40153
:100D5000808190E0288107C08E7FF80180838881A0
:100D600090E0F4012081821B9109BC01882777FD66
:100D70008095982F24D429813A814B815C81CFD4EE
:100D80009B01AC011ED3EDD36D837E838F83988747
:100D900024C02881C501E3E0880F991FEA95E1F797
:100DA000222341F0FC01E056FF4F3481332341F010
:100DB0002F3F99F0FC01E056FF4F84818F3F69F48B
:100DC0008EB58C7F8EBD8CB59DB5A0E0B0E08D83D7
:100DD0009E83AF83B88782E02ADCFFEFAF1ABF0A99
:100DE0002FE0C20ED11C3FE0830E911C2F964FE0E6
:100DF000E40EF11C015F1F4F52E0A516B10409F08B
:100E000069CEDF91CF911F910F91FF90EF90DF900E
:100E1000CF90BF90AF909F908F907F906F905F909A
:100E20004F903F902F900895CF93DF93A62F90E09F
:100E30009C0173E0220F331F7A95E1F7F901E05628
:100E4000FF4F4481641709F46DC0B4814FE0489F9F
:100E5000F001499FF00D1124E055FF4FB1836083ED
:100E600040E050E068EC72E442835383648375830E
:100E70004385AB1710F44E7F01C0416043876A2F52
:100E800070E0F901E056FF4F4481EB01C41BD1092A
:100E9000CB30D1051CF044814A1768F0F901E056C7
:100EA000FF4F448150E0461B570B4B305105DCF09F
:100EB0004481A417C0F42FE0289FE001299FD00DA2
:100EC0001124C055DF4F20E030E040E251E46A8158
:100ED0007B818C819D8123D444D36E837F838887DB
:100EE000998781E01EC0F901E056FF4F24813FE061
:100EF000389FE001399FD00D1124C055DF4F621B90
:100F00007109882777FD8095982F59D32A813B81D5
:100F10004C815D8104D425D36E837F838887998734
:100F200084E08A87DF91CF9108950F931F93CF9329
:100F3000DF93EB011091750088818E7F88830AE032
:100F400080E02DDBE4E096958795EA95E1F7212F87
:100F500030E02817390711F40F5F01C000E0182FA7
:100F60000A3070F320917500281719F0288121604C
:100F7000288310937500DF91CF911F910F910895F1
:100F80002F923F924F925F926F927F928F929F9299
:100F9000AF92BF92CF92DF92EF92FF920F931F9387
:100FA000CF93DF9300D0CDB7DEB70BEB10E0F0EBC3
:100FB0008F2EF0E09F2EAEEBAA2EA0E0BA2E312CA1
:100FC000B6E94B2E55245A94612C712CC12C80E427
:100FD000D82E8CE1E82E86E4F82E94E022242A9480
:100FE0001982BE016F5F7F4F832D9A839EDF9A81A6
:100FF0008B3738F08456F4018083F80180818E7F2E
:1010000003C0F801808181608083F8018081826063
:1010100080833A971082F4014682578260867186F7
:10102000C282D382E482F582F80131979083F50180
:1010300031971082F50132972082F50110823394A6
:10104000015F1F4FFFE08F0E911C8FE0A80EB11CB7
:10105000E2E03E12C5CF109277001EBC80E098E41B
:101060009BBD8ABD89B7806189BF78940F900F902E
:10107000DF91CF911F910F91FF90EF90DF90CF9074
:10108000BF90AF909F908F907F906F905F904F90A8
:101090003F902F900895482F282F30E08FE0489FF1
:1010A000F0011124E055FF4F8285882319F08385D4
:1010B0008F738387F90193E0EE0FFF1F9A95E1F795
:1010C000DF01A056BF4F14969C91149711968C91F6
:1010D00011979817D1F114969C91149715968C91AD
:1010E0001597981307C016968C9116978F5F1696D2
:1010F0008C9302C016961C92E056FF4F8481858324
:1011000086818A30A1F5808181838481808381E01A
:1011100082831382168281E090E002C0880F991FBB
:101120004A95E2F74FE0429FF001439FF00D1124F2
:10113000E055FF4F228521111CC0238526FF02C0E8
:10114000206801C020642387089514968C91811132
:1011500008C081E090E002C0880F991F4A95E2F72D
:1011600002C080E090E0E056FF4F1682089580E0D4
:1011700090E00895BA9AC29AB89AC09A08950895CC
:10118000CF93DF9300D000D01F92CDB7DEB7EFD85A
:10119000CDD7F0DFBBD8F4DE2FEF8FEF9CE22150EC
:1011A00080409040E1F700C0000088E48093780020
:1011B00081E4809379008CE480937A0080937B00B3
:1011C0008FE480937C0010927D0085E0809369001D
:1011D00010926A00B7D7EFEFFFEF2CE2E150F0403A
:1011E0002040E1F700C000008FEF9FEFECE281505C
:1011F0009040E040E1F700C00000E2D8FFEF2FEFA1
:101200008CE2F15020408040E1F700C00000B12C9A
:10121000C12CD12C80916700882309F443C0C09869
:1012200080918C008D36D1F5109266000DE810E0AB
:101230000115110599F16AE370E0C801FBD27C0148
:10124000009761F1AC01401B510BB801CE01019632
:10125000FCD21D82CE010196C5D2982E6BE370E0C0
:10126000C701E8D28C01B7016F5F7F4F009731F45F
:101270004091670050E044575F4F01C0AC014E19E8
:101280005F0941505109CE010196DFD21D82CE0186
:101290000196A8D2682F892DC7DDCACF10928C0085
:1012A0001092670093E0C916D10449F4809176004A
:1012B000882321F082E0BBD910927600DFDB19820F
:1012C0001A821B821C8200E010E0780183E0EE0CA1
:1012D000FF1C8A95E1F7F701E056FF4F4F0183812C
:1012E000882331F0802FD7DEC82AD92AF40113824F
:1012F000F701E056FF4F8281813009F040C08091B4
:10130000690081113CC080917800882329F061E652
:1013100070E088E790E083D24AE050E0BE016F5F62
:101320007F4FC801A1D2BE016F5F7F4F88E790E079
:1013300076D263E670E088E790E071D2C70180560C
:101340009F4F7C01FC0180814AE050E0BE016F5F4D
:101350007F4F90E089D2BE016F5F7F4F88E790E0BA
:101360005ED2E8E7F0E001900020E9F73197E85716
:10137000F040E0936900F7011282BB24B3940F5F41
:101380001F4F0230110509F0A0CFBB2009F442CF56
:10139000F6D6882309F43ECFD5D680916900811115
:1013A000FCCFFAD6B12C36CF991B79E004C0991F37
:1013B000961708F0961B881F7A95C9F780950895AF
:1013C0005058BB27AA270ED070C161D130F066D12A
:1013D00020F031F49F3F11F41EF456C10EF4E09555
:1013E000E7FB4CC1E92F72D180F3BA17620773078C
:1013F0008407950718F071F49EF58AC10EF4E09504
:101400000B2EBA2FA02D0B01B90190010C01CA01BE
:10141000A0011124FF27591B99F0593F50F4503E69
:1014200068F11A16F040A22F232F342F4427585F5B
:10143000F3CF469537952795A795F0405395C9F773
:101440007EF41F16BA0B620B730B840BBAF091502B
:10145000A1F0FF0FBB1F661F771F881FC2F70EC0CA
:10146000BA0F621F731F841F48F48795779567959D
:10147000B795F7959E3F08F0B3CF9395880F08F086
:101480009927EE0F979587950895D4D008F481E0B9
:1014900008950CD00AC102D140F0F9D030F021F407
:1014A0005F3F19F0EBC0511134C1EEC00FD198F37A
:1014B0009923C9F35523B1F3951B550BBB27AA27D5
:1014C00062177307840738F09F5F5F4F220F331F47
:1014D000441FAA1FA9F333D00E2E3AF0E0E830D013
:1014E00091505040E695001CCAF729D0FE2F27D016
:1014F000660F771F881FBB1F261737074807AB07E4
:10150000B0E809F0BB0B802DBF01FF2793585F4F58
:101510002AF09E3F510568F0B1C0FBC05F3FECF37D
:10152000983EDCF3869577956795B795F7959F5F1D
:10153000C9F7880F911D9695879597F90895E1E071
:10154000660F771F881FBB1F621773078407BA07D0
:1015500020F0621B730B840BBA0BEE1F88F7E0952B
:101560000895BCD088F09F5790F0B92F9927B751B4
:10157000A0F0D1F0660F771F881F991F1AF0BA9557
:10158000C9F712C0B13081F0C3D0B1E00895C0C036
:10159000672F782F8827B85F39F0B93FCCF386954D
:1015A00077956795B395D9F73EF4909580957095AA
:1015B00061957F4F8F4F9F4F0895E89409C097FB27
:1015C0003EF490958095709561957F4F8F4F9F4F1A
:1015D0009923A9F0F92F96E9BB279395F69587955E
:1015E00077956795B795F111F8CFFAF4BB0F11F421
:1015F00060FF1BC06F5F7F4F8F4F9F4F16C08823C8
:1016000011F096E911C0772321F09EE8872F762FFD
:1016100005C0662371F096E8862F70E060E02AF03E
:101620009A95660F771F881FDAF7880F969587952A
:1016300097F90895990F0008550FAA0BE0E8FEEFFF
:1016400016161706E807F907C0F012161306E40786
:10165000F50798F0621B730B840B950B39F40A267F
:1016600061F0232B242B252B21F408950A2609F45D
:10167000A140A6958FEF811D811D089597F99F6761
:1016800080E870E060E008959FEF80EC089500240A
:101690000A941616170618060906089500240A94D7
:1016A00012161306140605060895092E0394000C5D
:1016B00011F4882352F0BB0F40F4BF2B11F460FFEC
:1016C00004C06F5F7F4F8F4F9F4F089557FD905815
:1016D000440F551F59F05F3F71F04795880F97FBF6
:1016E000991F61F09F3F79F08795089512161306B0
:1016F0001406551FF2CF4695F1DF08C016161706DF
:101700001806991FF1CF8695710561050894089513
:10171000E894BB2766277727CB0197F908950BD06C
:10172000C4CFB5DF28F0BADF18F0952309F0A6CFB3
:10173000ABCF1124EECFCADFA0F3959FD1F3950F65
:1017400050E0551F629FF001729FBB27F00DB11D45
:10175000639FAA27F00DB11DAA1F649F6627B00DD5
:10176000A11D661F829F2227B00DA11D621F739FBE
:10177000B00DA11D621F839FA00D611D221F749FCC
:101780003327A00D611D231F849F600D211D822F13
:10179000762F6A2F11249F5750408AF0E1F088235A
:1017A0004AF0EE0FFF1FBB1F661F771F881F915067
:1017B0005040A9F79E3F510570F060CFAACF5F3F20
:1017C000ECF3983EDCF3869577956795B795F7959A
:1017D000E7959F5FC1F7FE2B880F911D9695879522
:1017E00097F90895FC0188279927E89421912032E0
:1017F000E9F3293010F02E30C8F32B3239F02D32B6
:1018000031F4689403C04FD0820F911D2191205371
:101810002A30C8F31EF4909581959F4F0895FB01DF
:10182000DC010D900020E9F7119701900D92002046
:10183000E1F70895FC018191861721F08823D9F7FB
:10184000992708953197CF010895FB01DC0141509C
:10185000504048F001900D920020C9F701C01D9240
:1018600041505040E0F70895FB019F01E894423059
:10187000BCF04532ACF44A3029F497FB1EF4909545
:1018800081959F4F642F772726D0805D8A330CF097
:10189000895D8193CB010097A9F716F45DE251931E
:1018A0001082C90108C07AE0979F902D879F802DF4
:1018B000910D11240895DC01FC01672F71917723AC
:1018C000E1F7329704C07C916D9370836291AE17FB
:1018D000BF07C8F30895AA1BBB1B51E107C0AA1F8D
:1018E000BB1FA617B70710F0A61BB70B881F991FC1
:1018F0005A95A9F780959095BC01CD010895F8946B
:02190000FFCF17
:06190200013B003A000069
:00000001FF
